{
  "_format": "hh-sol-artifact-1",
  "contractName": "RewardToken",
  "sourceName": "contracts/Reward.sol",
  "abi": [
    {
      "inputs": [
        {
          "internalType": "address",
          "name": "_signer",
          "type": "address"
        },
        {
          "internalType": "string",
          "name": "_baseTokenURI",
          "type": "string"
        }
      ],
      "stateMutability": "nonpayable",
      "type": "constructor"
    },
    {
      "anonymous": false,
      "inputs": [
        {
          "indexed": true,
          "internalType": "address",
          "name": "owner",
          "type": "address"
        },
        {
          "indexed": true,
          "internalType": "address",
          "name": "approved",
          "type": "address"
        },
        {
          "indexed": true,
          "internalType": "uint256",
          "name": "tokenId",
          "type": "uint256"
        }
      ],
      "name": "Approval",
      "type": "event"
    },
    {
      "anonymous": false,
      "inputs": [
        {
          "indexed": true,
          "internalType": "address",
          "name": "owner",
          "type": "address"
        },
        {
          "indexed": true,
          "internalType": "address",
          "name": "operator",
          "type": "address"
        },
        {
          "indexed": false,
          "internalType": "bool",
          "name": "approved",
          "type": "bool"
        }
      ],
      "name": "ApprovalForAll",
      "type": "event"
    },
    {
      "anonymous": false,
      "inputs": [
        {
          "indexed": false,
          "internalType": "uint256",
          "name": "_fromTokenId",
          "type": "uint256"
        },
        {
          "indexed": false,
          "internalType": "uint256",
          "name": "_toTokenId",
          "type": "uint256"
        }
      ],
      "name": "BatchMetadataUpdate",
      "type": "event"
    },
    {
      "anonymous": false,
      "inputs": [
        {
          "indexed": false,
          "internalType": "uint256",
          "name": "_tokenId",
          "type": "uint256"
        }
      ],
      "name": "MetadataUpdate",
      "type": "event"
    },
    {
      "anonymous": false,
      "inputs": [
        {
          "indexed": true,
          "internalType": "address",
          "name": "owner",
          "type": "address"
        },
        {
          "indexed": true,
          "internalType": "uint256",
          "name": "tokenId",
          "type": "uint256"
        },
        {
          "components": [
            {
              "internalType": "string",
              "name": "title",
              "type": "string"
            },
            {
              "internalType": "uint16",
              "name": "issuerId",
              "type": "uint16"
            },
            {
              "internalType": "uint256",
              "name": "createdAt",
              "type": "uint256"
            }
          ],
          "indexed": false,
          "internalType": "struct RewardToken.TokenData",
          "name": "tokenData",
          "type": "tuple"
        }
      ],
      "name": "NewReward",
      "type": "event"
    },
    {
      "anonymous": false,
      "inputs": [
        {
          "indexed": true,
          "internalType": "address",
          "name": "previousOwner",
          "type": "address"
        },
        {
          "indexed": true,
          "internalType": "address",
          "name": "newOwner",
          "type": "address"
        }
      ],
      "name": "OwnershipTransferred",
      "type": "event"
    },
    {
      "anonymous": false,
      "inputs": [
        {
          "indexed": true,
          "internalType": "address",
          "name": "from",
          "type": "address"
        },
        {
          "indexed": true,
          "internalType": "address",
          "name": "to",
          "type": "address"
        },
        {
          "indexed": true,
          "internalType": "uint256",
          "name": "tokenId",
          "type": "uint256"
        }
      ],
      "name": "Transfer",
      "type": "event"
    },
    {
      "inputs": [
        {
          "internalType": "address",
          "name": "to",
          "type": "address"
        },
        {
          "internalType": "uint256",
          "name": "tokenId",
          "type": "uint256"
        }
      ],
      "name": "approve",
      "outputs": [],
      "stateMutability": "nonpayable",
      "type": "function"
    },
    {
      "inputs": [
        {
          "internalType": "address",
          "name": "owner",
          "type": "address"
        }
      ],
      "name": "balanceOf",
      "outputs": [
        {
          "internalType": "uint256",
          "name": "",
          "type": "uint256"
        }
      ],
      "stateMutability": "view",
      "type": "function"
    },
    {
      "inputs": [],
      "name": "baseTokenURI",
      "outputs": [
        {
          "internalType": "string",
          "name": "",
          "type": "string"
        }
      ],
      "stateMutability": "view",
      "type": "function"
    },
    {
      "inputs": [
        {
          "internalType": "uint256",
          "name": "tokenId",
          "type": "uint256"
        }
      ],
      "name": "getApproved",
      "outputs": [
        {
          "internalType": "address",
          "name": "",
          "type": "address"
        }
      ],
      "stateMutability": "view",
      "type": "function"
    },
    {
      "inputs": [
        {
          "internalType": "uint256",
          "name": "tokenId",
          "type": "uint256"
        }
      ],
      "name": "getRewardOverview",
      "outputs": [
        {
          "internalType": "uint256",
          "name": "",
          "type": "uint256"
        },
        {
          "internalType": "string",
          "name": "",
          "type": "string"
        },
        {
          "internalType": "uint16",
          "name": "",
          "type": "uint16"
        },
        {
          "internalType": "uint256",
          "name": "",
          "type": "uint256"
        },
        {
          "internalType": "string",
          "name": "",
          "type": "string"
        }
      ],
      "stateMutability": "view",
      "type": "function"
    },
    {
      "inputs": [
        {
          "internalType": "address",
          "name": "user",
          "type": "address"
        }
      ],
      "name": "getUserRewards",
      "outputs": [
        {
          "components": [
            {
              "internalType": "uint256",
              "name": "tokenId",
              "type": "uint256"
            },
            {
              "internalType": "string",
              "name": "title",
              "type": "string"
            },
            {
              "internalType": "uint16",
              "name": "issuerId",
              "type": "uint16"
            },
            {
              "internalType": "uint256",
              "name": "createdAt",
              "type": "uint256"
            },
            {
              "internalType": "string",
              "name": "uri",
              "type": "string"
            }
          ],
          "internalType": "struct RewardToken.TokenOverview[]",
          "name": "",
          "type": "tuple[]"
        }
      ],
      "stateMutability": "view",
      "type": "function"
    },
    {
      "inputs": [
        {
          "internalType": "address",
          "name": "owner",
          "type": "address"
        },
        {
          "internalType": "address",
          "name": "operator",
          "type": "address"
        }
      ],
      "name": "isApprovedForAll",
      "outputs": [
        {
          "internalType": "bool",
          "name": "",
          "type": "bool"
        }
      ],
      "stateMutability": "view",
      "type": "function"
    },
    {
      "inputs": [
        {
          "internalType": "string",
          "name": "title",
          "type": "string"
        },
        {
          "internalType": "uint16",
          "name": "issuerId",
          "type": "uint16"
        },
        {
          "internalType": "uint256",
          "name": "nonce",
          "type": "uint256"
        },
        {
          "internalType": "string",
          "name": "uri",
          "type": "string"
        },
        {
          "internalType": "bytes",
          "name": "signature",
          "type": "bytes"
        }
      ],
      "name": "mint",
      "outputs": [],
      "stateMutability": "nonpayable",
      "type": "function"
    },
    {
      "inputs": [
        {
          "internalType": "address",
          "name": "beneficiary",
          "type": "address"
        },
        {
          "internalType": "string",
          "name": "title",
          "type": "string"
        },
        {
          "internalType": "uint16",
          "name": "issuerId",
          "type": "uint16"
        },
        {
          "internalType": "string",
          "name": "uri",
          "type": "string"
        }
      ],
      "name": "mintGift",
      "outputs": [],
      "stateMutability": "nonpayable",
      "type": "function"
    },
    {
      "inputs": [],
      "name": "name",
      "outputs": [
        {
          "internalType": "string",
          "name": "",
          "type": "string"
        }
      ],
      "stateMutability": "view",
      "type": "function"
    },
    {
      "inputs": [],
      "name": "owner",
      "outputs": [
        {
          "internalType": "address",
          "name": "",
          "type": "address"
        }
      ],
      "stateMutability": "view",
      "type": "function"
    },
    {
      "inputs": [
        {
          "internalType": "uint256",
          "name": "tokenId",
          "type": "uint256"
        }
      ],
      "name": "ownerOf",
      "outputs": [
        {
          "internalType": "address",
          "name": "",
          "type": "address"
        }
      ],
      "stateMutability": "view",
      "type": "function"
    },
    {
      "inputs": [],
      "name": "renounceOwnership",
      "outputs": [],
      "stateMutability": "view",
      "type": "function"
    },
    {
      "inputs": [
        {
          "internalType": "uint256",
          "name": "",
          "type": "uint256"
        }
      ],
      "name": "rewards",
      "outputs": [
        {
          "internalType": "string",
          "name": "title",
          "type": "string"
        },
        {
          "internalType": "uint16",
          "name": "issuerId",
          "type": "uint16"
        },
        {
          "internalType": "uint256",
          "name": "createdAt",
          "type": "uint256"
        }
      ],
      "stateMutability": "view",
      "type": "function"
    },
    {
      "inputs": [
        {
          "internalType": "address",
          "name": "from",
          "type": "address"
        },
        {
          "internalType": "address",
          "name": "to",
          "type": "address"
        },
        {
          "internalType": "uint256",
          "name": "tokenId",
          "type": "uint256"
        }
      ],
      "name": "safeTransferFrom",
      "outputs": [],
      "stateMutability": "nonpayable",
      "type": "function"
    },
    {
      "inputs": [
        {
          "internalType": "address",
          "name": "from",
          "type": "address"
        },
        {
          "internalType": "address",
          "name": "to",
          "type": "address"
        },
        {
          "internalType": "uint256",
          "name": "tokenId",
          "type": "uint256"
        },
        {
          "internalType": "bytes",
          "name": "data",
          "type": "bytes"
        }
      ],
      "name": "safeTransferFrom",
      "outputs": [],
      "stateMutability": "nonpayable",
      "type": "function"
    },
    {
      "inputs": [
        {
          "internalType": "address",
          "name": "operator",
          "type": "address"
        },
        {
          "internalType": "bool",
          "name": "approved",
          "type": "bool"
        }
      ],
      "name": "setApprovalForAll",
      "outputs": [],
      "stateMutability": "nonpayable",
      "type": "function"
    },
    {
      "inputs": [],
      "name": "signer",
      "outputs": [
        {
          "internalType": "address",
          "name": "",
          "type": "address"
        }
      ],
      "stateMutability": "view",
      "type": "function"
    },
    {
      "inputs": [
        {
          "internalType": "bytes4",
          "name": "interfaceId",
          "type": "bytes4"
        }
      ],
      "name": "supportsInterface",
      "outputs": [
        {
          "internalType": "bool",
          "name": "",
          "type": "bool"
        }
      ],
      "stateMutability": "view",
      "type": "function"
    },
    {
      "inputs": [],
      "name": "symbol",
      "outputs": [
        {
          "internalType": "string",
          "name": "",
          "type": "string"
        }
      ],
      "stateMutability": "view",
      "type": "function"
    },
    {
      "inputs": [
        {
          "internalType": "uint256",
          "name": "index",
          "type": "uint256"
        }
      ],
      "name": "tokenByIndex",
      "outputs": [
        {
          "internalType": "uint256",
          "name": "",
          "type": "uint256"
        }
      ],
      "stateMutability": "view",
      "type": "function"
    },
    {
      "inputs": [
        {
          "internalType": "address",
          "name": "owner",
          "type": "address"
        },
        {
          "internalType": "uint256",
          "name": "index",
          "type": "uint256"
        }
      ],
      "name": "tokenOfOwnerByIndex",
      "outputs": [
        {
          "internalType": "uint256",
          "name": "",
          "type": "uint256"
        }
      ],
      "stateMutability": "view",
      "type": "function"
    },
    {
      "inputs": [
        {
          "internalType": "string",
          "name": "uri",
          "type": "string"
        }
      ],
      "name": "tokenOfURI",
      "outputs": [
        {
          "internalType": "uint256",
          "name": "",
          "type": "uint256"
        },
        {
          "internalType": "string",
          "name": "",
          "type": "string"
        },
        {
          "internalType": "uint16",
          "name": "",
          "type": "uint16"
        },
        {
          "internalType": "uint256",
          "name": "",
          "type": "uint256"
        },
        {
          "internalType": "string",
          "name": "",
          "type": "string"
        }
      ],
      "stateMutability": "view",
      "type": "function"
    },
    {
      "inputs": [
        {
          "internalType": "uint256",
          "name": "tokenId",
          "type": "uint256"
        }
      ],
      "name": "tokenURI",
      "outputs": [
        {
          "internalType": "string",
          "name": "",
          "type": "string"
        }
      ],
      "stateMutability": "view",
      "type": "function"
    },
    {
      "inputs": [],
      "name": "totalSupply",
      "outputs": [
        {
          "internalType": "uint256",
          "name": "",
          "type": "uint256"
        }
      ],
      "stateMutability": "view",
      "type": "function"
    },
    {
      "inputs": [
        {
          "internalType": "address",
          "name": "from",
          "type": "address"
        },
        {
          "internalType": "address",
          "name": "to",
          "type": "address"
        },
        {
          "internalType": "uint256",
          "name": "tokenId",
          "type": "uint256"
        }
      ],
      "name": "transferFrom",
      "outputs": [],
      "stateMutability": "nonpayable",
      "type": "function"
    },
    {
      "inputs": [
        {
          "internalType": "address",
          "name": "newOwner",
          "type": "address"
        }
      ],
      "name": "transferOwnership",
      "outputs": [],
      "stateMutability": "nonpayable",
      "type": "function"
    },
    {
      "inputs": [
        {
          "internalType": "uint256",
          "name": "",
          "type": "uint256"
        }
      ],
      "name": "usedNonces",
      "outputs": [
        {
          "internalType": "bool",
          "name": "",
          "type": "bool"
        }
      ],
      "stateMutability": "view",
      "type": "function"
    }
  ],
  "bytecode": "0x60a06040523480156200001157600080fd5b5060405162005f7c38038062005f7c8339818101604052810190620000379190620003fd565b6040518060400160405280600c81526020017f52657761726420546f6b656e00000000000000000000000000000000000000008152506040518060400160405280600481526020017f54424150000000000000000000000000000000000000000000000000000000008152508160009081620000b49190620006ae565b508060019081620000c69190620006ae565b505050620000e9620000dd6200013760201b60201c565b6200013f60201b60201c565b8173ffffffffffffffffffffffffffffffffffffffff1660808173ffffffffffffffffffffffffffffffffffffffff168152505080601090816200012e9190620006ae565b50505062000795565b600033905090565b6000600b60009054906101000a900473ffffffffffffffffffffffffffffffffffffffff16905081600b60006101000a81548173ffffffffffffffffffffffffffffffffffffffff021916908373ffffffffffffffffffffffffffffffffffffffff1602179055508173ffffffffffffffffffffffffffffffffffffffff168173ffffffffffffffffffffffffffffffffffffffff167f8be0079c531659141344cd1fd0a4f28419497f9722a3daafe3b4186f6b6457e060405160405180910390a35050565b6000604051905090565b600080fd5b600080fd5b600073ffffffffffffffffffffffffffffffffffffffff82169050919050565b6000620002468262000219565b9050919050565b620002588162000239565b81146200026457600080fd5b50565b60008151905062000278816200024d565b92915050565b600080fd5b600080fd5b6000601f19601f8301169050919050565b7f4e487b7100000000000000000000000000000000000000000000000000000000600052604160045260246000fd5b620002d38262000288565b810181811067ffffffffffffffff82111715620002f557620002f462000299565b5b80604052505050565b60006200030a62000205565b9050620003188282620002c8565b919050565b600067ffffffffffffffff8211156200033b576200033a62000299565b5b620003468262000288565b9050602081019050919050565b60005b838110156200037357808201518184015260208101905062000356565b60008484015250505050565b60006200039662000390846200031d565b620002fe565b905082815260208101848484011115620003b557620003b462000283565b5b620003c284828562000353565b509392505050565b600082601f830112620003e257620003e16200027e565b5b8151620003f48482602086016200037f565b91505092915050565b600080604083850312156200041757620004166200020f565b5b6000620004278582860162000267565b925050602083015167ffffffffffffffff8111156200044b576200044a62000214565b5b6200045985828601620003ca565b9150509250929050565b600081519050919050565b7f4e487b7100000000000000000000000000000000000000000000000000000000600052602260045260246000fd5b60006002820490506001821680620004b657607f821691505b602082108103620004cc57620004cb6200046e565b5b50919050565b60008190508160005260206000209050919050565b60006020601f8301049050919050565b600082821b905092915050565b600060088302620005367fffffffffffffffffffffffffffffffffffffffffffffffffffffffffffffffff82620004f7565b620005428683620004f7565b95508019841693508086168417925050509392505050565b6000819050919050565b6000819050919050565b60006200058f6200058962000583846200055a565b62000564565b6200055a565b9050919050565b6000819050919050565b620005ab836200056e565b620005c3620005ba8262000596565b84845462000504565b825550505050565b600090565b620005da620005cb565b620005e7818484620005a0565b505050565b5b818110156200060f5762000603600082620005d0565b600181019050620005ed565b5050565b601f8211156200065e576200062881620004d2565b6200063384620004e7565b8101602085101562000643578190505b6200065b6200065285620004e7565b830182620005ec565b50505b505050565b600082821c905092915050565b6000620006836000198460080262000663565b1980831691505092915050565b60006200069e838362000670565b9150826002028217905092915050565b620006b98262000463565b67ffffffffffffffff811115620006d557620006d462000299565b5b620006e182546200049d565b620006ee82828562000613565b600060209050601f83116001811462000726576000841562000711578287015190505b6200071d858262000690565b8655506200078d565b601f1984166200073686620004d2565b60005b82811015620007605784890151825560018201915060208501945060208101905062000739565b868310156200078057848901516200077c601f89168262000670565b8355505b6001600288020188555050505b505050505050565b6080516157c4620007b8600039600081816108f9015261133901526157c46000f3fe608060405234801561001057600080fd5b50600436106101c45760003560e01c80636717e41c116100f9578063b88d4fde11610097578063e6330baa11610071578063e6330baa14610547578063e985e9c514610563578063f2fde38b14610593578063f301af42146105af576101c4565b8063b88d4fde146104dd578063c87b56dd146104f9578063d547cfb714610529576101c4565b80637c34a67c116100d35780637c34a67c146104695780638da5cb5b1461048557806395d89b41146104a3578063a22cb465146104c1576101c4565b80636717e41c146103ff57806370a082311461042f578063715018a61461045f576101c4565b806323b872dd1161016657806342842e0e1161014057806342842e0e1461034f5780634f6ccce71461036b57806354ede3b21461039b5780636352211e146103cf576101c4565b806323b872dd146102cf5780632f745c59146102eb578063402244d11461031b576101c4565b8063081812fc116101a2578063081812fc14610247578063095ea7b31461027757806318160ddd14610293578063238ac933146102b1576101c4565b806301ffc9a7146101c957806306fdde03146101f9578063078b0fb714610217575b600080fd5b6101e360048036038101906101de91906136b1565b6105e1565b6040516101f091906136f9565b60405180910390f35b6102016105f3565b60405161020e91906137a4565b60405180910390f35b610231600480360381019061022c9190613824565b610685565b60405161023e9190613a10565b60405180910390f35b610261600480360381019061025c9190613a5e565b61078d565b60405161026e9190613a9a565b60405180910390f35b610291600480360381019061028c9190613ab5565b6107d3565b005b61029b6108ea565b6040516102a89190613b04565b60405180910390f35b6102b96108f7565b6040516102c69190613a9a565b60405180910390f35b6102e960048036038101906102e49190613b1f565b61091b565b005b61030560048036038101906103009190613ab5565b61097b565b6040516103129190613b04565b60405180910390f35b61033560048036038101906103309190613a5e565b610a20565b604051610346959493929190613b81565b60405180910390f35b61036960048036038101906103649190613b1f565b610b24565b005b61038560048036038101906103809190613a5e565b610b44565b6040516103929190613b04565b60405180910390f35b6103b560048036038101906103b09190613d17565b610bb5565b6040516103c6959493929190613b81565b60405180910390f35b6103e960048036038101906103e49190613a5e565b610cd5565b6040516103f69190613a9a565b60405180910390f35b61041960048036038101906104149190613a5e565b610d5b565b60405161042691906136f9565b60405180910390f35b61044960048036038101906104449190613824565b610d7b565b6040516104569190613b04565b60405180910390f35b610467610e32565b005b610483600480360381019061047e9190613dec565b610e75565b005b61048d610f6f565b60405161049a9190613a9a565b60405180910390f35b6104ab610f99565b6040516104b891906137a4565b60405180910390f35b6104db60048036038101906104d69190613ebf565b61102b565b005b6104f760048036038101906104f29190613fa0565b611041565b005b610513600480360381019061050e9190613a5e565b6110a3565b60405161052091906137a4565b60405180910390f35b6105316110fd565b60405161053e91906137a4565b60405180910390f35b610561600480360381019061055c9190614079565b61118b565b005b61057d60048036038101906105789190614155565b61142f565b60405161058a91906136f9565b60405180910390f35b6105ad60048036038101906105a89190613824565b6114c3565b005b6105c960048036038101906105c49190613a5e565b611546565b6040516105d893929190614195565b60405180910390f35b60006105ec82611606565b9050919050565b60606000805461060290614202565b80601f016020809104026020016040519081016040528092919081815260200182805461062e90614202565b801561067b5780601f106106505761010080835404028352916020019161067b565b820191906000526020600020905b81548152906001019060200180831161065e57829003601f168201915b5050505050905090565b6060600061069283610d7b565b905060008167ffffffffffffffff8111156106b0576106af613bec565b5b6040519080825280602002602001820160405280156106e957816020015b6106d6613612565b8152602001906001900390816106ce5790505b50905060005b82811015610782576000610703868361097b565b9050600080600080600061071686610a20565b945094509450945094506040518060a001604052808681526020018581526020018461ffff1681526020018381526020018281525088888151811061075e5761075d614233565b5b6020026020010181905250505050505050808061077a90614291565b9150506106ef565b508092505050919050565b600061079882611667565b6004600083815260200190815260200160002060009054906101000a900473ffffffffffffffffffffffffffffffffffffffff169050919050565b60006107de82610cd5565b90508073ffffffffffffffffffffffffffffffffffffffff168373ffffffffffffffffffffffffffffffffffffffff160361084e576040517f08c379a00000000000000000000000000000000000000000000000000000000081526004016108459061434b565b60405180910390fd5b8073ffffffffffffffffffffffffffffffffffffffff1661086d6116b2565b73ffffffffffffffffffffffffffffffffffffffff16148061089c575061089b816108966116b2565b61142f565b5b6108db576040517f08c379a00000000000000000000000000000000000000000000000000000000081526004016108d2906143dd565b60405180910390fd5b6108e583836116ba565b505050565b6000600880549050905090565b7f000000000000000000000000000000000000000000000000000000000000000081565b61092c6109266116b2565b82611773565b61096b576040517f08c379a00000000000000000000000000000000000000000000000000000000081526004016109629061446f565b60405180910390fd5b610976838383611808565b505050565b600061098683610d7b565b82106109c7576040517f08c379a00000000000000000000000000000000000000000000000000000000081526004016109be90614501565b60405180910390fd5b600660008473ffffffffffffffffffffffffffffffffffffffff1673ffffffffffffffffffffffffffffffffffffffff168152602001908152602001600020600083815260200190815260200160002054905092915050565b60006060600080606085600d6000888152602001908152602001600020600001600d600089815260200190815260200160002060010160009054906101000a900461ffff16600d60008a815260200190815260200160002060020154610a858a6110a3565b838054610a9190614202565b80601f0160208091040260200160405190810160405280929190818152602001828054610abd90614202565b8015610b0a5780601f10610adf57610100808354040283529160200191610b0a565b820191906000526020600020905b815481529060010190602001808311610aed57829003601f168201915b505050505093509450945094509450945091939590929450565b610b3f83838360405180602001604052806000815250611041565b505050565b6000610b4e6108ea565b8210610b8f576040517f08c379a0000000000000000000000000000000000000000000000000000000008152600401610b8690614593565b60405180910390fd5b60088281548110610ba357610ba2614233565b5b90600052602060002001549050919050565b6000606060008060606000600c87604051610bd091906145ef565b908152602001604051809103902054905080600d6000838152602001908152602001600020600001600d600084815260200190815260200160002060010160009054906101000a900461ffff16600d6000858152602001908152602001600020600201548a838054610c4190614202565b80601f0160208091040260200160405190810160405280929190818152602001828054610c6d90614202565b8015610cba5780601f10610c8f57610100808354040283529160200191610cba565b820191906000526020600020905b815481529060010190602001808311610c9d57829003601f168201915b50505050509350955095509550955095505091939590929450565b600080610ce183611b01565b9050600073ffffffffffffffffffffffffffffffffffffffff168173ffffffffffffffffffffffffffffffffffffffff1603610d52576040517f08c379a0000000000000000000000000000000000000000000000000000000008152600401610d4990614652565b60405180910390fd5b80915050919050565b600e6020528060005260406000206000915054906101000a900460ff1681565b60008073ffffffffffffffffffffffffffffffffffffffff168273ffffffffffffffffffffffffffffffffffffffff1603610deb576040517f08c379a0000000000000000000000000000000000000000000000000000000008152600401610de2906146e4565b60405180910390fd5b600360008373ffffffffffffffffffffffffffffffffffffffff1673ffffffffffffffffffffffffffffffffffffffff168152602001908152602001600020549050919050565b610e3a611b3e565b6040517f08c379a0000000000000000000000000000000000000000000000000000000008152600401610e6c90614750565b60405180910390fd5b610e7d611b3e565b84848080601f016020809104026020016040519081016040528093929190818152602001838380828437600081840152601f19601f820116905080830192505050505050506000610ecd82611bbc565b9050610100811115610f14576040517f08c379a0000000000000000000000000000000000000000000000000000000008152600401610f0b906147bc565b60405180910390fd5b60008111610f57576040517f08c379a0000000000000000000000000000000000000000000000000000000008152600401610f4e90614828565b60405180910390fd5b610f65888888888888611e75565b5050505050505050565b6000600b60009054906101000a900473ffffffffffffffffffffffffffffffffffffffff16905090565b606060018054610fa890614202565b80601f0160208091040260200160405190810160405280929190818152602001828054610fd490614202565b80156110215780601f10610ff657610100808354040283529160200191611021565b820191906000526020600020905b81548152906001019060200180831161100457829003601f168201915b5050505050905090565b61103d6110366116b2565b838361202a565b5050565b61105261104c6116b2565b83611773565b611091576040517f08c379a00000000000000000000000000000000000000000000000000000000081526004016110889061446f565b60405180910390fd5b61109d84848484612196565b50505050565b60606110ae826121f2565b6110ed576040517f08c379a00000000000000000000000000000000000000000000000000000000081526004016110e4906148ba565b60405180910390fd5b6110f682612233565b9050919050565b6010805461110a90614202565b80601f016020809104026020016040519081016040528092919081815260200182805461113690614202565b80156111835780601f1061115857610100808354040283529160200191611183565b820191906000526020600020905b81548152906001019060200180831161116657829003601f168201915b505050505081565b87878080601f016020809104026020016040519081016040528093929190818152602001838380828437600081840152601f19601f8201169050808301925050505050505060006111db82611bbc565b9050610100811115611222576040517f08c379a0000000000000000000000000000000000000000000000000000000008152600401611219906147bc565b60405180910390fd5b60008111611265576040517f08c379a000000000000000000000000000000000000000000000000000000000815260040161125c90614828565b60405180910390fd5b86600e600082815260200190815260200160002060009054906101000a900460ff16156112c7576040517f08c379a00000000000000000000000000000000000000000000000000000000081526004016112be90614926565b60405180910390fd5b6001600e600083815260200190815260200160002060006101000a81548160ff02191690831515021790555060008b8b8b8b8b8b306040516020016113129796959493929190614a0a565b604051602081830303815290604052805190602001209050600061133582612345565b90507f000000000000000000000000000000000000000000000000000000000000000073ffffffffffffffffffffffffffffffffffffffff166113bc8289898080601f016020809104026020016040519081016040528093929190818152602001838380828437600081840152601f19601f8201169050808301925050505050505061237b565b73ffffffffffffffffffffffffffffffffffffffff1614611412576040517f08c379a000000000000000000000000000000000000000000000000000000000815260040161140990614ad7565b60405180910390fd5b611420338e8e8e8d8d611e75565b50505050505050505050505050565b6000600560008473ffffffffffffffffffffffffffffffffffffffff1673ffffffffffffffffffffffffffffffffffffffff16815260200190815260200160002060008373ffffffffffffffffffffffffffffffffffffffff1673ffffffffffffffffffffffffffffffffffffffff16815260200190815260200160002060009054906101000a900460ff16905092915050565b6114cb611b3e565b600073ffffffffffffffffffffffffffffffffffffffff168173ffffffffffffffffffffffffffffffffffffffff160361153a576040517f08c379a000000000000000000000000000000000000000000000000000000000815260040161153190614b69565b60405180910390fd5b611543816123a2565b50565b600d60205280600052604060002060009150905080600001805461156990614202565b80601f016020809104026020016040519081016040528092919081815260200182805461159590614202565b80156115e25780601f106115b7576101008083540402835291602001916115e2565b820191906000526020600020905b8154815290600101906020018083116115c557829003601f168201915b5050505050908060010160009054906101000a900461ffff16908060020154905083565b6000634906490660e01b7bffffffffffffffffffffffffffffffffffffffffffffffffffffffff1916827bffffffffffffffffffffffffffffffffffffffffffffffffffffffff19161480611660575061165f82612468565b5b9050919050565b611670816121f2565b6116af576040517f08c379a00000000000000000000000000000000000000000000000000000000081526004016116a690614652565b60405180910390fd5b50565b600033905090565b816004600083815260200190815260200160002060006101000a81548173ffffffffffffffffffffffffffffffffffffffff021916908373ffffffffffffffffffffffffffffffffffffffff160217905550808273ffffffffffffffffffffffffffffffffffffffff1661172d83610cd5565b73ffffffffffffffffffffffffffffffffffffffff167f8c5be1e5ebec7d5bd14f71427d1e84f3dd0314c0f7b2291e5b200ac8c7c3b92560405160405180910390a45050565b60008061177f83610cd5565b90508073ffffffffffffffffffffffffffffffffffffffff168473ffffffffffffffffffffffffffffffffffffffff1614806117c157506117c0818561142f565b5b806117ff57508373ffffffffffffffffffffffffffffffffffffffff166117e78461078d565b73ffffffffffffffffffffffffffffffffffffffff16145b91505092915050565b8273ffffffffffffffffffffffffffffffffffffffff1661182882610cd5565b73ffffffffffffffffffffffffffffffffffffffff161461187e576040517f08c379a000000000000000000000000000000000000000000000000000000000815260040161187590614bfb565b60405180910390fd5b600073ffffffffffffffffffffffffffffffffffffffff168273ffffffffffffffffffffffffffffffffffffffff16036118ed576040517f08c379a00000000000000000000000000000000000000000000000000000000081526004016118e490614c8d565b60405180910390fd5b6118fa83838360016124e2565b8273ffffffffffffffffffffffffffffffffffffffff1661191a82610cd5565b73ffffffffffffffffffffffffffffffffffffffff1614611970576040517f08c379a000000000000000000000000000000000000000000000000000000000815260040161196790614bfb565b60405180910390fd5b6004600082815260200190815260200160002060006101000a81549073ffffffffffffffffffffffffffffffffffffffff02191690556001600360008573ffffffffffffffffffffffffffffffffffffffff1673ffffffffffffffffffffffffffffffffffffffff168152602001908152602001600020600082825403925050819055506001600360008473ffffffffffffffffffffffffffffffffffffffff1673ffffffffffffffffffffffffffffffffffffffff16815260200190815260200160002060008282540192505081905550816002600083815260200190815260200160002060006101000a81548173ffffffffffffffffffffffffffffffffffffffff021916908373ffffffffffffffffffffffffffffffffffffffff160217905550808273ffffffffffffffffffffffffffffffffffffffff168473ffffffffffffffffffffffffffffffffffffffff167fddf252ad1be2c89b69c2b068fc378daa952ba7f163c4a11628f55a4df523b3ef60405160405180910390a4611afc838383600161259a565b505050565b60006002600083815260200190815260200160002060009054906101000a900473ffffffffffffffffffffffffffffffffffffffff169050919050565b611b466116b2565b73ffffffffffffffffffffffffffffffffffffffff16611b64610f6f565b73ffffffffffffffffffffffffffffffffffffffff1614611bba576040517f08c379a0000000000000000000000000000000000000000000000000000000008152600401611bb190614cf9565b60405180910390fd5b565b6000806000905060008390505b8051821015611e6e57600060f81b6007828481518110611bec57611beb614233565b5b602001015160f81c60f81b7effffffffffffffffffffffffffffffffffffffffffffffffffffffffffffff1916901c7effffffffffffffffffffffffffffffffffffffffffffffffffffffffffffff191603611c5657600182611c4f9190614d19565b9150611e5b565b600660f81b7effffffffffffffffffffffffffffffffffffffffffffffffffffffffffffff19166005828481518110611c9257611c91614233565b5b602001015160f81c60f81b7effffffffffffffffffffffffffffffffffffffffffffffffffffffffffffff1916901c7effffffffffffffffffffffffffffffffffffffffffffffffffffffffffffff191603611cfc57600282611cf59190614d19565b9150611e5a565b600e60f81b7effffffffffffffffffffffffffffffffffffffffffffffffffffffffffffff19166004828481518110611d3857611d37614233565b5b602001015160f81c60f81b7effffffffffffffffffffffffffffffffffffffffffffffffffffffffffffff1916901c7effffffffffffffffffffffffffffffffffffffffffffffffffffffffffffff191603611da257600382611d9b9190614d19565b9150611e59565b601e60f81b7effffffffffffffffffffffffffffffffffffffffffffffffffffffffffffff19166003828481518110611dde57611ddd614233565b5b602001015160f81c60f81b7effffffffffffffffffffffffffffffffffffffffffffffffffffffffffffff1916901c7effffffffffffffffffffffffffffffffffffffffffffffffffffffffffffff191603611e4857600482611e419190614d19565b9150611e58565b600182611e559190614d19565b91505b5b5b5b8280611e6690614291565b935050611bc9565b5050919050565b60004290506000604051806060016040528088888080601f016020809104026020016040519081016040528093929190818152602001838380828437600081840152601f19601f8201169050808301925050505050505081526020018661ffff1681526020018381525090506000611eed600f6125a0565b9050611ef9600f6125ae565b611f0389826125c4565b611f518186868080601f016020809104026020016040519081016040528093929190818152602001838380828437600081840152601f19601f820116905080830192505050505050506125e2565b81600d60008381526020019081526020016000206000820151816000019081611f7a9190614ef9565b5060208201518160010160006101000a81548161ffff021916908361ffff1602179055506040820151816002015590505080600c8686604051611fbe929190614fcb565b908152602001604051809103902081905550808973ffffffffffffffffffffffffffffffffffffffff167fc71e86ec3f2203d2fc8628f5224fcaca0a1454ffb07f07f950b65b7e76d9c0fb846040516120179190615034565b60405180910390a3505050505050505050565b8173ffffffffffffffffffffffffffffffffffffffff168373ffffffffffffffffffffffffffffffffffffffff1603612098576040517f08c379a000000000000000000000000000000000000000000000000000000000815260040161208f906150a2565b60405180910390fd5b80600560008573ffffffffffffffffffffffffffffffffffffffff1673ffffffffffffffffffffffffffffffffffffffff16815260200190815260200160002060008473ffffffffffffffffffffffffffffffffffffffff1673ffffffffffffffffffffffffffffffffffffffff16815260200190815260200160002060006101000a81548160ff0219169083151502179055508173ffffffffffffffffffffffffffffffffffffffff168373ffffffffffffffffffffffffffffffffffffffff167f17307eab39ab6107e8899845ad3d59bd9653f200f220920489ca2b5937696c318360405161218991906136f9565b60405180910390a3505050565b6121a1848484611808565b6121ad84848484612686565b6121ec576040517f08c379a00000000000000000000000000000000000000000000000000000000081526004016121e390615134565b60405180910390fd5b50505050565b60008073ffffffffffffffffffffffffffffffffffffffff1661221483611b01565b73ffffffffffffffffffffffffffffffffffffffff1614159050919050565b606061223e82611667565b6000600a6000848152602001908152602001600020805461225e90614202565b80601f016020809104026020016040519081016040528092919081815260200182805461228a90614202565b80156122d75780601f106122ac576101008083540402835291602001916122d7565b820191906000526020600020905b8154815290600101906020018083116122ba57829003601f168201915b5050505050905060006122e861280d565b905060008151036122fd578192505050612340565b60008251111561233257808260405160200161231a929190615154565b60405160208183030381529060405292505050612340565b61233b8461289f565b925050505b919050565b60007f19457468657265756d205369676e6564204d6573736167653a0a33320000000060005281601c52603c6000209050919050565b600080600061238a8585612907565b9150915061239781612958565b819250505092915050565b6000600b60009054906101000a900473ffffffffffffffffffffffffffffffffffffffff16905081600b60006101000a81548173ffffffffffffffffffffffffffffffffffffffff021916908373ffffffffffffffffffffffffffffffffffffffff1602179055508173ffffffffffffffffffffffffffffffffffffffff168173ffffffffffffffffffffffffffffffffffffffff167f8be0079c531659141344cd1fd0a4f28419497f9722a3daafe3b4186f6b6457e060405160405180910390a35050565b60007f780e9d63000000000000000000000000000000000000000000000000000000007bffffffffffffffffffffffffffffffffffffffffffffffffffffffff1916827bffffffffffffffffffffffffffffffffffffffffffffffffffffffff191614806124db57506124da82612abe565b5b9050919050565b600073ffffffffffffffffffffffffffffffffffffffff168473ffffffffffffffffffffffffffffffffffffffff1614806125495750600073ffffffffffffffffffffffffffffffffffffffff168373ffffffffffffffffffffffffffffffffffffffff16145b612588576040517f08c379a000000000000000000000000000000000000000000000000000000000815260040161257f906151ea565b60405180910390fd5b61259484848484612ba0565b50505050565b50505050565b600081600001549050919050565b6001816000016000828254019250508190555050565b6125de828260405180602001604052806000815250612cfe565b5050565b6125eb826121f2565b61262a576040517f08c379a00000000000000000000000000000000000000000000000000000000081526004016126219061527c565b60405180910390fd5b80600a6000848152602001908152602001600020908161264a9190614ef9565b507ff8e1a15aba9398e019f0b49df1a4fde98ee17ae345cb5f6b5e2c27f5033e8ce78260405161267a9190613b04565b60405180910390a15050565b60006126a78473ffffffffffffffffffffffffffffffffffffffff16612d59565b15612800578373ffffffffffffffffffffffffffffffffffffffff1663150b7a026126d06116b2565b8786866040518563ffffffff1660e01b81526004016126f294939291906152f1565b6020604051808303816000875af192505050801561272e57506040513d601f19601f8201168201806040525081019061272b9190615352565b60015b6127b0573d806000811461275e576040519150601f19603f3d011682016040523d82523d6000602084013e612763565b606091505b5060008151036127a8576040517f08c379a000000000000000000000000000000000000000000000000000000000815260040161279f90615134565b60405180910390fd5b805181602001fd5b63150b7a0260e01b7bffffffffffffffffffffffffffffffffffffffffffffffffffffffff1916817bffffffffffffffffffffffffffffffffffffffffffffffffffffffff191614915050612805565b600190505b949350505050565b60606010805461281c90614202565b80601f016020809104026020016040519081016040528092919081815260200182805461284890614202565b80156128955780601f1061286a57610100808354040283529160200191612895565b820191906000526020600020905b81548152906001019060200180831161287857829003601f168201915b5050505050905090565b60606128aa82611667565b60006128b461280d565b905060008151116128d457604051806020016040528060008152506128ff565b806128de84612d7c565b6040516020016128ef929190615154565b6040516020818303038152906040525b915050919050565b60008060418351036129485760008060006020860151925060408601519150606086015160001a905061293c87828585612e4a565b94509450505050612951565b60006002915091505b9250929050565b6000600481111561296c5761296b61537f565b5b81600481111561297f5761297e61537f565b5b0315612abb57600160048111156129995761299861537f565b5b8160048111156129ac576129ab61537f565b5b036129ec576040517f08c379a00000000000000000000000000000000000000000000000000000000081526004016129e3906153fa565b60405180910390fd5b60026004811115612a00576129ff61537f565b5b816004811115612a1357612a1261537f565b5b03612a53576040517f08c379a0000000000000000000000000000000000000000000000000000000008152600401612a4a90615466565b60405180910390fd5b60036004811115612a6757612a6661537f565b5b816004811115612a7a57612a7961537f565b5b03612aba576040517f08c379a0000000000000000000000000000000000000000000000000000000008152600401612ab1906154f8565b60405180910390fd5b5b50565b60007f80ac58cd000000000000000000000000000000000000000000000000000000007bffffffffffffffffffffffffffffffffffffffffffffffffffffffff1916827bffffffffffffffffffffffffffffffffffffffffffffffffffffffff19161480612b8957507f5b5e139f000000000000000000000000000000000000000000000000000000007bffffffffffffffffffffffffffffffffffffffffffffffffffffffff1916827bffffffffffffffffffffffffffffffffffffffffffffffffffffffff1916145b80612b995750612b9882612f2c565b5b9050919050565b612bac84848484612f96565b6001811115612bf0576040517f08c379a0000000000000000000000000000000000000000000000000000000008152600401612be79061558a565b60405180910390fd5b6000829050600073ffffffffffffffffffffffffffffffffffffffff168573ffffffffffffffffffffffffffffffffffffffff1603612c3757612c3281612f9c565b612c76565b8373ffffffffffffffffffffffffffffffffffffffff168573ffffffffffffffffffffffffffffffffffffffff1614612c7557612c748582612fe5565b5b5b600073ffffffffffffffffffffffffffffffffffffffff168473ffffffffffffffffffffffffffffffffffffffff1603612cb857612cb381613152565b612cf7565b8473ffffffffffffffffffffffffffffffffffffffff168473ffffffffffffffffffffffffffffffffffffffff1614612cf657612cf58482613223565b5b5b5050505050565b612d0883836132a2565b612d156000848484612686565b612d54576040517f08c379a0000000000000000000000000000000000000000000000000000000008152600401612d4b90615134565b60405180910390fd5b505050565b6000808273ffffffffffffffffffffffffffffffffffffffff163b119050919050565b606060006001612d8b846134bf565b01905060008167ffffffffffffffff811115612daa57612da9613bec565b5b6040519080825280601f01601f191660200182016040528015612ddc5781602001600182028036833780820191505090505b509050600082602001820190505b600115612e3f578080600190039150507f3031323334353637383961626364656600000000000000000000000000000000600a86061a8153600a8581612e3357612e326155aa565b5b04945060008503612dea575b819350505050919050565b6000807f7fffffffffffffffffffffffffffffff5d576e7357a4501ddfe92f46681b20a08360001c1115612e85576000600391509150612f23565b600060018787878760405160008152602001604052604051612eaa949392919061560e565b6020604051602081039080840390855afa158015612ecc573d6000803e3d6000fd5b505050602060405103519050600073ffffffffffffffffffffffffffffffffffffffff168173ffffffffffffffffffffffffffffffffffffffff1603612f1a57600060019250925050612f23565b80600092509250505b94509492505050565b60007f01ffc9a7000000000000000000000000000000000000000000000000000000007bffffffffffffffffffffffffffffffffffffffffffffffffffffffff1916827bffffffffffffffffffffffffffffffffffffffffffffffffffffffff1916149050919050565b50505050565b6008805490506009600083815260200190815260200160002081905550600881908060018154018082558091505060019003906000526020600020016000909190919091505550565b60006001612ff284610d7b565b612ffc9190615653565b90506000600760008481526020019081526020016000205490508181146130e1576000600660008673ffffffffffffffffffffffffffffffffffffffff1673ffffffffffffffffffffffffffffffffffffffff168152602001908152602001600020600084815260200190815260200160002054905080600660008773ffffffffffffffffffffffffffffffffffffffff1673ffffffffffffffffffffffffffffffffffffffff168152602001908152602001600020600084815260200190815260200160002081905550816007600083815260200190815260200160002081905550505b6007600084815260200190815260200160002060009055600660008573ffffffffffffffffffffffffffffffffffffffff1673ffffffffffffffffffffffffffffffffffffffff16815260200190815260200160002060008381526020019081526020016000206000905550505050565b600060016008805490506131669190615653565b905060006009600084815260200190815260200160002054905060006008838154811061319657613195614233565b5b9060005260206000200154905080600883815481106131b8576131b7614233565b5b90600052602060002001819055508160096000838152602001908152602001600020819055506009600085815260200190815260200160002060009055600880548061320757613206615687565b5b6001900381819060005260206000200160009055905550505050565b600061322e83610d7b565b905081600660008573ffffffffffffffffffffffffffffffffffffffff1673ffffffffffffffffffffffffffffffffffffffff168152602001908152602001600020600083815260200190815260200160002081905550806007600084815260200190815260200160002081905550505050565b600073ffffffffffffffffffffffffffffffffffffffff168273ffffffffffffffffffffffffffffffffffffffff1603613311576040517f08c379a000000000000000000000000000000000000000000000000000000000815260040161330890615702565b60405180910390fd5b61331a816121f2565b1561335a576040517f08c379a00000000000000000000000000000000000000000000000000000000081526004016133519061576e565b60405180910390fd5b6133686000838360016124e2565b613371816121f2565b156133b1576040517f08c379a00000000000000000000000000000000000000000000000000000000081526004016133a89061576e565b60405180910390fd5b6001600360008473ffffffffffffffffffffffffffffffffffffffff1673ffffffffffffffffffffffffffffffffffffffff16815260200190815260200160002060008282540192505081905550816002600083815260200190815260200160002060006101000a81548173ffffffffffffffffffffffffffffffffffffffff021916908373ffffffffffffffffffffffffffffffffffffffff160217905550808273ffffffffffffffffffffffffffffffffffffffff16600073ffffffffffffffffffffffffffffffffffffffff167fddf252ad1be2c89b69c2b068fc378daa952ba7f163c4a11628f55a4df523b3ef60405160405180910390a46134bb60008383600161259a565b5050565b600080600090507a184f03e93ff9f4daa797ed6e38ed64bf6a1f010000000000000000831061351d577a184f03e93ff9f4daa797ed6e38ed64bf6a1f0100000000000000008381613513576135126155aa565b5b0492506040810190505b6d04ee2d6d415b85acef8100000000831061355a576d04ee2d6d415b85acef810000000083816135505761354f6155aa565b5b0492506020810190505b662386f26fc10000831061358957662386f26fc10000838161357f5761357e6155aa565b5b0492506010810190505b6305f5e10083106135b2576305f5e10083816135a8576135a76155aa565b5b0492506008810190505b61271083106135d75761271083816135cd576135cc6155aa565b5b0492506004810190505b606483106135fa57606483816135f0576135ef6155aa565b5b0492506002810190505b600a8310613609576001810190505b80915050919050565b6040518060a001604052806000815260200160608152602001600061ffff16815260200160008152602001606081525090565b6000604051905090565b600080fd5b600080fd5b60007fffffffff0000000000000000000000000000000000000000000000000000000082169050919050565b61368e81613659565b811461369957600080fd5b50565b6000813590506136ab81613685565b92915050565b6000602082840312156136c7576136c661364f565b5b60006136d58482850161369c565b91505092915050565b60008115159050919050565b6136f3816136de565b82525050565b600060208201905061370e60008301846136ea565b92915050565b600081519050919050565b600082825260208201905092915050565b60005b8381101561374e578082015181840152602081019050613733565b60008484015250505050565b6000601f19601f8301169050919050565b600061377682613714565b613780818561371f565b9350613790818560208601613730565b6137998161375a565b840191505092915050565b600060208201905081810360008301526137be818461376b565b905092915050565b600073ffffffffffffffffffffffffffffffffffffffff82169050919050565b60006137f1826137c6565b9050919050565b613801816137e6565b811461380c57600080fd5b50565b60008135905061381e816137f8565b92915050565b60006020828403121561383a5761383961364f565b5b60006138488482850161380f565b91505092915050565b600081519050919050565b600082825260208201905092915050565b6000819050602082019050919050565b6000819050919050565b6138908161387d565b82525050565b600082825260208201905092915050565b60006138b282613714565b6138bc8185613896565b93506138cc818560208601613730565b6138d58161375a565b840191505092915050565b600061ffff82169050919050565b6138f7816138e0565b82525050565b600060a0830160008301516139156000860182613887565b506020830151848203602086015261392d82826138a7565b915050604083015161394260408601826138ee565b5060608301516139556060860182613887565b506080830151848203608086015261396d82826138a7565b9150508091505092915050565b600061398683836138fd565b905092915050565b6000602082019050919050565b60006139a682613851565b6139b0818561385c565b9350836020820285016139c28561386d565b8060005b858110156139fe57848403895281516139df858261397a565b94506139ea8361398e565b925060208a019950506001810190506139c6565b50829750879550505050505092915050565b60006020820190508181036000830152613a2a818461399b565b905092915050565b613a3b8161387d565b8114613a4657600080fd5b50565b600081359050613a5881613a32565b92915050565b600060208284031215613a7457613a7361364f565b5b6000613a8284828501613a49565b91505092915050565b613a94816137e6565b82525050565b6000602082019050613aaf6000830184613a8b565b92915050565b60008060408385031215613acc57613acb61364f565b5b6000613ada8582860161380f565b9250506020613aeb85828601613a49565b9150509250929050565b613afe8161387d565b82525050565b6000602082019050613b196000830184613af5565b92915050565b600080600060608486031215613b3857613b3761364f565b5b6000613b468682870161380f565b9350506020613b578682870161380f565b9250506040613b6886828701613a49565b9150509250925092565b613b7b816138e0565b82525050565b600060a082019050613b966000830188613af5565b8181036020830152613ba8818761376b565b9050613bb76040830186613b72565b613bc46060830185613af5565b8181036080830152613bd6818461376b565b90509695505050505050565b600080fd5b600080fd5b7f4e487b7100000000000000000000000000000000000000000000000000000000600052604160045260246000fd5b613c248261375a565b810181811067ffffffffffffffff82111715613c4357613c42613bec565b5b80604052505050565b6000613c56613645565b9050613c628282613c1b565b919050565b600067ffffffffffffffff821115613c8257613c81613bec565b5b613c8b8261375a565b9050602081019050919050565b82818337600083830152505050565b6000613cba613cb584613c67565b613c4c565b905082815260208101848484011115613cd657613cd5613be7565b5b613ce1848285613c98565b509392505050565b600082601f830112613cfe57613cfd613be2565b5b8135613d0e848260208601613ca7565b91505092915050565b600060208284031215613d2d57613d2c61364f565b5b600082013567ffffffffffffffff811115613d4b57613d4a613654565b5b613d5784828501613ce9565b91505092915050565b600080fd5b600080fd5b60008083601f840112613d8057613d7f613be2565b5b8235905067ffffffffffffffff811115613d9d57613d9c613d60565b5b602083019150836001820283011115613db957613db8613d65565b5b9250929050565b613dc9816138e0565b8114613dd457600080fd5b50565b600081359050613de681613dc0565b92915050565b60008060008060008060808789031215613e0957613e0861364f565b5b6000613e1789828a0161380f565b965050602087013567ffffffffffffffff811115613e3857613e37613654565b5b613e4489828a01613d6a565b95509550506040613e5789828a01613dd7565b935050606087013567ffffffffffffffff811115613e7857613e77613654565b5b613e8489828a01613d6a565b92509250509295509295509295565b613e9c816136de565b8114613ea757600080fd5b50565b600081359050613eb981613e93565b92915050565b60008060408385031215613ed657613ed561364f565b5b6000613ee48582860161380f565b9250506020613ef585828601613eaa565b9150509250929050565b600067ffffffffffffffff821115613f1a57613f19613bec565b5b613f238261375a565b9050602081019050919050565b6000613f43613f3e84613eff565b613c4c565b905082815260208101848484011115613f5f57613f5e613be7565b5b613f6a848285613c98565b509392505050565b600082601f830112613f8757613f86613be2565b5b8135613f97848260208601613f30565b91505092915050565b60008060008060808587031215613fba57613fb961364f565b5b6000613fc88782880161380f565b9450506020613fd98782880161380f565b9350506040613fea87828801613a49565b925050606085013567ffffffffffffffff81111561400b5761400a613654565b5b61401787828801613f72565b91505092959194509250565b60008083601f84011261403957614038613be2565b5b8235905067ffffffffffffffff81111561405657614055613d60565b5b60208301915083600182028301111561407257614071613d65565b5b9250929050565b60008060008060008060008060a0898b0312156140995761409861364f565b5b600089013567ffffffffffffffff8111156140b7576140b6613654565b5b6140c38b828c01613d6a565b985098505060206140d68b828c01613dd7565b96505060406140e78b828c01613a49565b955050606089013567ffffffffffffffff81111561410857614107613654565b5b6141148b828c01613d6a565b9450945050608089013567ffffffffffffffff81111561413757614136613654565b5b6141438b828c01614023565b92509250509295985092959890939650565b6000806040838503121561416c5761416b61364f565b5b600061417a8582860161380f565b925050602061418b8582860161380f565b9150509250929050565b600060608201905081810360008301526141af818661376b565b90506141be6020830185613b72565b6141cb6040830184613af5565b949350505050565b7f4e487b7100000000000000000000000000000000000000000000000000000000600052602260045260246000fd5b6000600282049050600182168061421a57607f821691505b60208210810361422d5761422c6141d3565b5b50919050565b7f4e487b7100000000000000000000000000000000000000000000000000000000600052603260045260246000fd5b7f4e487b7100000000000000000000000000000000000000000000000000000000600052601160045260246000fd5b600061429c8261387d565b91507fffffffffffffffffffffffffffffffffffffffffffffffffffffffffffffffff82036142ce576142cd614262565b5b600182019050919050565b7f4552433732313a20617070726f76616c20746f2063757272656e74206f776e6560008201527f7200000000000000000000000000000000000000000000000000000000000000602082015250565b600061433560218361371f565b9150614340826142d9565b604082019050919050565b6000602082019050818103600083015261436481614328565b9050919050565b7f4552433732313a20617070726f76652063616c6c6572206973206e6f7420746f60008201527f6b656e206f776e6572206f7220617070726f76656420666f7220616c6c000000602082015250565b60006143c7603d8361371f565b91506143d28261436b565b604082019050919050565b600060208201905081810360008301526143f6816143ba565b9050919050565b7f4552433732313a2063616c6c6572206973206e6f7420746f6b656e206f776e6560008201527f72206f7220617070726f76656400000000000000000000000000000000000000602082015250565b6000614459602d8361371f565b9150614464826143fd565b604082019050919050565b600060208201905081810360008301526144888161444c565b9050919050565b7f455243373231456e756d657261626c653a206f776e657220696e646578206f7560008201527f74206f6620626f756e6473000000000000000000000000000000000000000000602082015250565b60006144eb602b8361371f565b91506144f68261448f565b604082019050919050565b6000602082019050818103600083015261451a816144de565b9050919050565b7f455243373231456e756d657261626c653a20676c6f62616c20696e646578206f60008201527f7574206f6620626f756e64730000000000000000000000000000000000000000602082015250565b600061457d602c8361371f565b915061458882614521565b604082019050919050565b600060208201905081810360008301526145ac81614570565b9050919050565b600081905092915050565b60006145c982613714565b6145d381856145b3565b93506145e3818560208601613730565b80840191505092915050565b60006145fb82846145be565b915081905092915050565b7f4552433732313a20696e76616c696420746f6b656e2049440000000000000000600082015250565b600061463c60188361371f565b915061464782614606565b602082019050919050565b6000602082019050818103600083015261466b8161462f565b9050919050565b7f4552433732313a2061646472657373207a65726f206973206e6f74206120766160008201527f6c6964206f776e65720000000000000000000000000000000000000000000000602082015250565b60006146ce60298361371f565b91506146d982614672565b604082019050919050565b600060208201905081810360008301526146fd816146c1565b9050919050565b7f43616e27742072656e6f756e63654f776e657273686970206865726500000000600082015250565b600061473a601c8361371f565b915061474582614704565b602082019050919050565b600060208201905081810360008301526147698161472d565b9050919050565b7f5469746c6520697320746f6f206c6f6e67000000000000000000000000000000600082015250565b60006147a660118361371f565b91506147b182614770565b602082019050919050565b600060208201905081810360008301526147d581614799565b9050919050565b7f5469746c652063616e6e6f7420626520626c616e6b0000000000000000000000600082015250565b600061481260158361371f565b915061481d826147dc565b602082019050919050565b6000602082019050818103600083015261484181614805565b9050919050565b7f45524337323155524953746f726167653a2055524920717565727920666f722060008201527f6e6f6e6578697374656e7420746f6b656e000000000000000000000000000000602082015250565b60006148a460318361371f565b91506148af82614848565b604082019050919050565b600060208201905081810360008301526148d381614897565b9050919050565b7f5369676e617475726520616c7265616479207573656400000000000000000000600082015250565b600061491060168361371f565b915061491b826148da565b602082019050919050565b6000602082019050818103600083015261493f81614903565b9050919050565b600061495283856145b3565b935061495f838584613c98565b82840190509392505050565b60008160f01b9050919050565b60006149838261496b565b9050919050565b61499b614996826138e0565b614978565b82525050565b6000819050919050565b6149bc6149b78261387d565b6149a1565b82525050565b60008160601b9050919050565b60006149da826149c2565b9050919050565b60006149ec826149cf565b9050919050565b614a046149ff826137e6565b6149e1565b82525050565b6000614a1782898b614946565b9150614a23828861498a565b600282019150614a3382876149ab565b602082019150614a44828587614946565b9150614a5082846149f3565b60148201915081905098975050505050505050565b7f496e76616c6964206261636b656e64207369676e61747572652e204d696e742060008201527f6e6f7420616c6c6f7765642e0000000000000000000000000000000000000000602082015250565b6000614ac1602c8361371f565b9150614acc82614a65565b604082019050919050565b60006020820190508181036000830152614af081614ab4565b9050919050565b7f4f776e61626c653a206e6577206f776e657220697320746865207a65726f206160008201527f6464726573730000000000000000000000000000000000000000000000000000602082015250565b6000614b5360268361371f565b9150614b5e82614af7565b604082019050919050565b60006020820190508181036000830152614b8281614b46565b9050919050565b7f4552433732313a207472616e736665722066726f6d20696e636f72726563742060008201527f6f776e6572000000000000000000000000000000000000000000000000000000602082015250565b6000614be560258361371f565b9150614bf082614b89565b604082019050919050565b60006020820190508181036000830152614c1481614bd8565b9050919050565b7f4552433732313a207472616e7366657220746f20746865207a65726f2061646460008201527f7265737300000000000000000000000000000000000000000000000000000000602082015250565b6000614c7760248361371f565b9150614c8282614c1b565b604082019050919050565b60006020820190508181036000830152614ca681614c6a565b9050919050565b7f4f776e61626c653a2063616c6c6572206973206e6f7420746865206f776e6572600082015250565b6000614ce360208361371f565b9150614cee82614cad565b602082019050919050565b60006020820190508181036000830152614d1281614cd6565b9050919050565b6000614d248261387d565b9150614d2f8361387d565b9250828201905080821115614d4757614d46614262565b5b92915050565b60008190508160005260206000209050919050565b60006020601f8301049050919050565b600082821b905092915050565b600060088302614daf7fffffffffffffffffffffffffffffffffffffffffffffffffffffffffffffffff82614d72565b614db98683614d72565b95508019841693508086168417925050509392505050565b6000819050919050565b6000614df6614df1614dec8461387d565b614dd1565b61387d565b9050919050565b6000819050919050565b614e1083614ddb565b614e24614e1c82614dfd565b848454614d7f565b825550505050565b600090565b614e39614e2c565b614e44818484614e07565b505050565b5b81811015614e6857614e5d600082614e31565b600181019050614e4a565b5050565b601f821115614ead57614e7e81614d4d565b614e8784614d62565b81016020851015614e96578190505b614eaa614ea285614d62565b830182614e49565b50505b505050565b600082821c905092915050565b6000614ed060001984600802614eb2565b1980831691505092915050565b6000614ee98383614ebf565b9150826002028217905092915050565b614f0282613714565b67ffffffffffffffff811115614f1b57614f1a613bec565b5b614f258254614202565b614f30828285614e6c565b600060209050601f831160018114614f635760008415614f51578287015190505b614f5b8582614edd565b865550614fc3565b601f198416614f7186614d4d565b60005b82811015614f9957848901518255600182019150602085019450602081019050614f74565b86831015614fb65784890151614fb2601f891682614ebf565b8355505b6001600288020188555050505b505050505050565b6000614fd8828486614946565b91508190509392505050565b6000606083016000830151848203600086015261500182826138a7565b915050602083015161501660208601826138ee565b5060408301516150296040860182613887565b508091505092915050565b6000602082019050818103600083015261504e8184614fe4565b905092915050565b7f4552433732313a20617070726f766520746f2063616c6c657200000000000000600082015250565b600061508c60198361371f565b915061509782615056565b602082019050919050565b600060208201905081810360008301526150bb8161507f565b9050919050565b7f4552433732313a207472616e7366657220746f206e6f6e20455243373231526560008201527f63656976657220696d706c656d656e7465720000000000000000000000000000602082015250565b600061511e60328361371f565b9150615129826150c2565b604082019050919050565b6000602082019050818103600083015261514d81615111565b9050919050565b600061516082856145be565b915061516c82846145be565b91508190509392505050565b7f546f6b656e206f776e657273686970206973206e6f6e207472616e736665727260008201527f61626c6500000000000000000000000000000000000000000000000000000000602082015250565b60006151d460248361371f565b91506151df82615178565b604082019050919050565b60006020820190508181036000830152615203816151c7565b9050919050565b7f45524337323155524953746f726167653a2055524920736574206f66206e6f6e60008201527f6578697374656e7420746f6b656e000000000000000000000000000000000000602082015250565b6000615266602e8361371f565b91506152718261520a565b604082019050919050565b6000602082019050818103600083015261529581615259565b9050919050565b600081519050919050565b600082825260208201905092915050565b60006152c38261529c565b6152cd81856152a7565b93506152dd818560208601613730565b6152e68161375a565b840191505092915050565b60006080820190506153066000830187613a8b565b6153136020830186613a8b565b6153206040830185613af5565b818103606083015261533281846152b8565b905095945050505050565b60008151905061534c81613685565b92915050565b6000602082840312156153685761536761364f565b5b60006153768482850161533d565b91505092915050565b7f4e487b7100000000000000000000000000000000000000000000000000000000600052602160045260246000fd5b7f45434453413a20696e76616c6964207369676e61747572650000000000000000600082015250565b60006153e460188361371f565b91506153ef826153ae565b602082019050919050565b60006020820190508181036000830152615413816153d7565b9050919050565b7f45434453413a20696e76616c6964207369676e6174757265206c656e67746800600082015250565b6000615450601f8361371f565b915061545b8261541a565b602082019050919050565b6000602082019050818103600083015261547f81615443565b9050919050565b7f45434453413a20696e76616c6964207369676e6174757265202773272076616c60008201527f7565000000000000000000000000000000000000000000000000000000000000602082015250565b60006154e260228361371f565b91506154ed82615486565b604082019050919050565b60006020820190508181036000830152615511816154d5565b9050919050565b7f455243373231456e756d657261626c653a20636f6e736563757469766520747260008201527f616e7366657273206e6f7420737570706f727465640000000000000000000000602082015250565b600061557460358361371f565b915061557f82615518565b604082019050919050565b600060208201905081810360008301526155a381615567565b9050919050565b7f4e487b7100000000000000000000000000000000000000000000000000000000600052601260045260246000fd5b6000819050919050565b6155ec816155d9565b82525050565b600060ff82169050919050565b615608816155f2565b82525050565b600060808201905061562360008301876155e3565b61563060208301866155ff565b61563d60408301856155e3565b61564a60608301846155e3565b95945050505050565b600061565e8261387d565b91506156698361387d565b925082820390508181111561568157615680614262565b5b92915050565b7f4e487b7100000000000000000000000000000000000000000000000000000000600052603160045260246000fd5b7f4552433732313a206d696e7420746f20746865207a65726f2061646472657373600082015250565b60006156ec60208361371f565b91506156f7826156b6565b602082019050919050565b6000602082019050818103600083015261571b816156df565b9050919050565b7f4552433732313a20746f6b656e20616c7265616479206d696e74656400000000600082015250565b6000615758601c8361371f565b915061576382615722565b602082019050919050565b600060208201905081810360008301526157878161574b565b905091905056fea26469706673582212209483ae5387d9580a961c5a240aed73850f8090f32c894eb057dc53f74292146464736f6c63430008120033",
  "linkReferences": {},
  "deployedLinkReferences": {}
}