{
  "_format": "hh-sol-artifact-1",
  "contractName": "RewardToken",
  "sourceName": "contracts/Reward.sol",
  "abi": [
    {
      "inputs": [
        {
          "internalType": "address",
          "name": "_signer",
          "type": "address"
        },
        {
          "internalType": "string",
          "name": "_baseTokenURI",
          "type": "string"
        }
      ],
      "stateMutability": "nonpayable",
      "type": "constructor"
    },
    {
      "anonymous": false,
      "inputs": [
        {
          "indexed": true,
          "internalType": "address",
          "name": "owner",
          "type": "address"
        },
        {
          "indexed": true,
          "internalType": "address",
          "name": "approved",
          "type": "address"
        },
        {
          "indexed": true,
          "internalType": "uint256",
          "name": "tokenId",
          "type": "uint256"
        }
      ],
      "name": "Approval",
      "type": "event"
    },
    {
      "anonymous": false,
      "inputs": [
        {
          "indexed": true,
          "internalType": "address",
          "name": "owner",
          "type": "address"
        },
        {
          "indexed": true,
          "internalType": "address",
          "name": "operator",
          "type": "address"
        },
        {
          "indexed": false,
          "internalType": "bool",
          "name": "approved",
          "type": "bool"
        }
      ],
      "name": "ApprovalForAll",
      "type": "event"
    },
    {
      "anonymous": false,
      "inputs": [
        {
          "indexed": false,
          "internalType": "uint256",
          "name": "_fromTokenId",
          "type": "uint256"
        },
        {
          "indexed": false,
          "internalType": "uint256",
          "name": "_toTokenId",
          "type": "uint256"
        }
      ],
      "name": "BatchMetadataUpdate",
      "type": "event"
    },
    {
      "anonymous": false,
      "inputs": [
        {
          "indexed": false,
          "internalType": "uint256",
          "name": "_tokenId",
          "type": "uint256"
        }
      ],
      "name": "MetadataUpdate",
      "type": "event"
    },
    {
      "anonymous": false,
      "inputs": [
        {
          "indexed": true,
          "internalType": "address",
          "name": "owner",
          "type": "address"
        },
        {
          "indexed": true,
          "internalType": "uint256",
          "name": "tokenId",
          "type": "uint256"
        },
        {
          "components": [
            {
              "internalType": "string",
              "name": "title",
              "type": "string"
            },
            {
              "internalType": "uint16",
              "name": "issuerId",
              "type": "uint16"
            },
            {
              "internalType": "uint256",
              "name": "createdAt",
              "type": "uint256"
            }
          ],
          "indexed": false,
          "internalType": "struct RewardToken.TokenData",
          "name": "tokenData",
          "type": "tuple"
        }
      ],
      "name": "NewReward",
      "type": "event"
    },
    {
      "anonymous": false,
      "inputs": [
        {
          "indexed": true,
          "internalType": "address",
          "name": "previousOwner",
          "type": "address"
        },
        {
          "indexed": true,
          "internalType": "address",
          "name": "newOwner",
          "type": "address"
        }
      ],
      "name": "OwnershipTransferred",
      "type": "event"
    },
    {
      "anonymous": false,
      "inputs": [
        {
          "indexed": true,
          "internalType": "address",
          "name": "from",
          "type": "address"
        },
        {
          "indexed": true,
          "internalType": "address",
          "name": "to",
          "type": "address"
        },
        {
          "indexed": true,
          "internalType": "uint256",
          "name": "tokenId",
          "type": "uint256"
        }
      ],
      "name": "Transfer",
      "type": "event"
    },
    {
      "inputs": [
        {
          "internalType": "address",
          "name": "to",
          "type": "address"
        },
        {
          "internalType": "uint256",
          "name": "tokenId",
          "type": "uint256"
        }
      ],
      "name": "approve",
      "outputs": [],
      "stateMutability": "nonpayable",
      "type": "function"
    },
    {
      "inputs": [
        {
          "internalType": "address",
          "name": "owner",
          "type": "address"
        }
      ],
      "name": "balanceOf",
      "outputs": [
        {
          "internalType": "uint256",
          "name": "",
          "type": "uint256"
        }
      ],
      "stateMutability": "view",
      "type": "function"
    },
    {
      "inputs": [],
      "name": "baseTokenURI",
      "outputs": [
        {
          "internalType": "string",
          "name": "",
          "type": "string"
        }
      ],
      "stateMutability": "view",
      "type": "function"
    },
    {
      "inputs": [
        {
          "internalType": "uint256",
          "name": "tokenId",
          "type": "uint256"
        }
      ],
      "name": "getApproved",
      "outputs": [
        {
          "internalType": "address",
          "name": "",
          "type": "address"
        }
      ],
      "stateMutability": "view",
      "type": "function"
    },
    {
      "inputs": [
        {
          "internalType": "uint256",
          "name": "tokenId",
          "type": "uint256"
        }
      ],
      "name": "getRewardOverview",
      "outputs": [
        {
          "internalType": "string",
          "name": "",
          "type": "string"
        },
        {
          "internalType": "uint16",
          "name": "",
          "type": "uint16"
        },
        {
          "internalType": "uint256",
          "name": "",
          "type": "uint256"
        }
      ],
      "stateMutability": "view",
      "type": "function"
    },
    {
      "inputs": [
        {
          "internalType": "address",
          "name": "user",
          "type": "address"
        }
      ],
      "name": "getUserRewards",
      "outputs": [
        {
          "internalType": "uint256[]",
          "name": "",
          "type": "uint256[]"
        },
        {
          "components": [
            {
              "internalType": "string",
              "name": "title",
              "type": "string"
            },
            {
              "internalType": "uint16",
              "name": "issuerId",
              "type": "uint16"
            },
            {
              "internalType": "uint256",
              "name": "createdAt",
              "type": "uint256"
            }
          ],
          "internalType": "struct RewardToken.TokenData[]",
          "name": "",
          "type": "tuple[]"
        }
      ],
      "stateMutability": "view",
      "type": "function"
    },
    {
      "inputs": [
        {
          "internalType": "address",
          "name": "owner",
          "type": "address"
        },
        {
          "internalType": "address",
          "name": "operator",
          "type": "address"
        }
      ],
      "name": "isApprovedForAll",
      "outputs": [
        {
          "internalType": "bool",
          "name": "",
          "type": "bool"
        }
      ],
      "stateMutability": "view",
      "type": "function"
    },
    {
      "inputs": [
        {
          "internalType": "string",
          "name": "title",
          "type": "string"
        },
        {
          "internalType": "uint16",
          "name": "issuerId",
          "type": "uint16"
        },
        {
          "internalType": "uint256",
          "name": "nonce",
          "type": "uint256"
        },
        {
          "internalType": "string",
          "name": "uri",
          "type": "string"
        },
        {
          "internalType": "bytes",
          "name": "signature",
          "type": "bytes"
        }
      ],
      "name": "mint",
      "outputs": [],
      "stateMutability": "nonpayable",
      "type": "function"
    },
    {
      "inputs": [
        {
          "internalType": "address",
          "name": "beneficiary",
          "type": "address"
        },
        {
          "internalType": "string",
          "name": "title",
          "type": "string"
        },
        {
          "internalType": "uint16",
          "name": "issuerId",
          "type": "uint16"
        },
        {
          "internalType": "string",
          "name": "uri",
          "type": "string"
        }
      ],
      "name": "mintGift",
      "outputs": [],
      "stateMutability": "nonpayable",
      "type": "function"
    },
    {
      "inputs": [],
      "name": "name",
      "outputs": [
        {
          "internalType": "string",
          "name": "",
          "type": "string"
        }
      ],
      "stateMutability": "view",
      "type": "function"
    },
    {
      "inputs": [],
      "name": "owner",
      "outputs": [
        {
          "internalType": "address",
          "name": "",
          "type": "address"
        }
      ],
      "stateMutability": "view",
      "type": "function"
    },
    {
      "inputs": [
        {
          "internalType": "uint256",
          "name": "tokenId",
          "type": "uint256"
        }
      ],
      "name": "ownerOf",
      "outputs": [
        {
          "internalType": "address",
          "name": "",
          "type": "address"
        }
      ],
      "stateMutability": "view",
      "type": "function"
    },
    {
      "inputs": [],
      "name": "renounceOwnership",
      "outputs": [],
      "stateMutability": "view",
      "type": "function"
    },
    {
      "inputs": [
        {
          "internalType": "uint256",
          "name": "",
          "type": "uint256"
        }
      ],
      "name": "rewards",
      "outputs": [
        {
          "internalType": "string",
          "name": "title",
          "type": "string"
        },
        {
          "internalType": "uint16",
          "name": "issuerId",
          "type": "uint16"
        },
        {
          "internalType": "uint256",
          "name": "createdAt",
          "type": "uint256"
        }
      ],
      "stateMutability": "view",
      "type": "function"
    },
    {
      "inputs": [
        {
          "internalType": "address",
          "name": "from",
          "type": "address"
        },
        {
          "internalType": "address",
          "name": "to",
          "type": "address"
        },
        {
          "internalType": "uint256",
          "name": "tokenId",
          "type": "uint256"
        }
      ],
      "name": "safeTransferFrom",
      "outputs": [],
      "stateMutability": "nonpayable",
      "type": "function"
    },
    {
      "inputs": [
        {
          "internalType": "address",
          "name": "from",
          "type": "address"
        },
        {
          "internalType": "address",
          "name": "to",
          "type": "address"
        },
        {
          "internalType": "uint256",
          "name": "tokenId",
          "type": "uint256"
        },
        {
          "internalType": "bytes",
          "name": "data",
          "type": "bytes"
        }
      ],
      "name": "safeTransferFrom",
      "outputs": [],
      "stateMutability": "nonpayable",
      "type": "function"
    },
    {
      "inputs": [
        {
          "internalType": "address",
          "name": "operator",
          "type": "address"
        },
        {
          "internalType": "bool",
          "name": "approved",
          "type": "bool"
        }
      ],
      "name": "setApprovalForAll",
      "outputs": [],
      "stateMutability": "nonpayable",
      "type": "function"
    },
    {
      "inputs": [],
      "name": "signer",
      "outputs": [
        {
          "internalType": "address",
          "name": "",
          "type": "address"
        }
      ],
      "stateMutability": "view",
      "type": "function"
    },
    {
      "inputs": [
        {
          "internalType": "bytes4",
          "name": "interfaceId",
          "type": "bytes4"
        }
      ],
      "name": "supportsInterface",
      "outputs": [
        {
          "internalType": "bool",
          "name": "",
          "type": "bool"
        }
      ],
      "stateMutability": "view",
      "type": "function"
    },
    {
      "inputs": [],
      "name": "symbol",
      "outputs": [
        {
          "internalType": "string",
          "name": "",
          "type": "string"
        }
      ],
      "stateMutability": "view",
      "type": "function"
    },
    {
      "inputs": [
        {
          "internalType": "uint256",
          "name": "index",
          "type": "uint256"
        }
      ],
      "name": "tokenByIndex",
      "outputs": [
        {
          "internalType": "uint256",
          "name": "",
          "type": "uint256"
        }
      ],
      "stateMutability": "view",
      "type": "function"
    },
    {
      "inputs": [
        {
          "internalType": "address",
          "name": "owner",
          "type": "address"
        },
        {
          "internalType": "uint256",
          "name": "index",
          "type": "uint256"
        }
      ],
      "name": "tokenOfOwnerByIndex",
      "outputs": [
        {
          "internalType": "uint256",
          "name": "",
          "type": "uint256"
        }
      ],
      "stateMutability": "view",
      "type": "function"
    },
    {
      "inputs": [
        {
          "internalType": "uint256",
          "name": "tokenId",
          "type": "uint256"
        }
      ],
      "name": "tokenURI",
      "outputs": [
        {
          "internalType": "string",
          "name": "",
          "type": "string"
        }
      ],
      "stateMutability": "view",
      "type": "function"
    },
    {
      "inputs": [],
      "name": "totalSupply",
      "outputs": [
        {
          "internalType": "uint256",
          "name": "",
          "type": "uint256"
        }
      ],
      "stateMutability": "view",
      "type": "function"
    },
    {
      "inputs": [
        {
          "internalType": "address",
          "name": "from",
          "type": "address"
        },
        {
          "internalType": "address",
          "name": "to",
          "type": "address"
        },
        {
          "internalType": "uint256",
          "name": "tokenId",
          "type": "uint256"
        }
      ],
      "name": "transferFrom",
      "outputs": [],
      "stateMutability": "nonpayable",
      "type": "function"
    },
    {
      "inputs": [
        {
          "internalType": "address",
          "name": "newOwner",
          "type": "address"
        }
      ],
      "name": "transferOwnership",
      "outputs": [],
      "stateMutability": "nonpayable",
      "type": "function"
    },
    {
      "inputs": [
        {
          "internalType": "uint256",
          "name": "",
          "type": "uint256"
        }
      ],
      "name": "usedNonces",
      "outputs": [
        {
          "internalType": "bool",
          "name": "",
          "type": "bool"
        }
      ],
      "stateMutability": "view",
      "type": "function"
    }
  ],
  "bytecode": "0x60a06040523480156200001157600080fd5b5060405162005eca38038062005eca8339818101604052810190620000379190620003fd565b6040518060400160405280600c81526020017f52657761726420546f6b656e00000000000000000000000000000000000000008152506040518060400160405280600481526020017f54424150000000000000000000000000000000000000000000000000000000008152508160009081620000b49190620006ae565b508060019081620000c69190620006ae565b505050620000e9620000dd6200013760201b60201c565b6200013f60201b60201c565b8173ffffffffffffffffffffffffffffffffffffffff1660808173ffffffffffffffffffffffffffffffffffffffff168152505080600f90816200012e9190620006ae565b50505062000795565b600033905090565b6000600b60009054906101000a900473ffffffffffffffffffffffffffffffffffffffff16905081600b60006101000a81548173ffffffffffffffffffffffffffffffffffffffff021916908373ffffffffffffffffffffffffffffffffffffffff1602179055508173ffffffffffffffffffffffffffffffffffffffff168173ffffffffffffffffffffffffffffffffffffffff167f8be0079c531659141344cd1fd0a4f28419497f9722a3daafe3b4186f6b6457e060405160405180910390a35050565b6000604051905090565b600080fd5b600080fd5b600073ffffffffffffffffffffffffffffffffffffffff82169050919050565b6000620002468262000219565b9050919050565b620002588162000239565b81146200026457600080fd5b50565b60008151905062000278816200024d565b92915050565b600080fd5b600080fd5b6000601f19601f8301169050919050565b7f4e487b7100000000000000000000000000000000000000000000000000000000600052604160045260246000fd5b620002d38262000288565b810181811067ffffffffffffffff82111715620002f557620002f462000299565b5b80604052505050565b60006200030a62000205565b9050620003188282620002c8565b919050565b600067ffffffffffffffff8211156200033b576200033a62000299565b5b620003468262000288565b9050602081019050919050565b60005b838110156200037357808201518184015260208101905062000356565b60008484015250505050565b60006200039662000390846200031d565b620002fe565b905082815260208101848484011115620003b557620003b462000283565b5b620003c284828562000353565b509392505050565b600082601f830112620003e257620003e16200027e565b5b8151620003f48482602086016200037f565b91505092915050565b600080604083850312156200041757620004166200020f565b5b6000620004278582860162000267565b925050602083015167ffffffffffffffff8111156200044b576200044a62000214565b5b6200045985828601620003ca565b9150509250929050565b600081519050919050565b7f4e487b7100000000000000000000000000000000000000000000000000000000600052602260045260246000fd5b60006002820490506001821680620004b657607f821691505b602082108103620004cc57620004cb6200046e565b5b50919050565b60008190508160005260206000209050919050565b60006020601f8301049050919050565b600082821b905092915050565b600060088302620005367fffffffffffffffffffffffffffffffffffffffffffffffffffffffffffffffff82620004f7565b620005428683620004f7565b95508019841693508086168417925050509392505050565b6000819050919050565b6000819050919050565b60006200058f6200058962000583846200055a565b62000564565b6200055a565b9050919050565b6000819050919050565b620005ab836200056e565b620005c3620005ba8262000596565b84845462000504565b825550505050565b600090565b620005da620005cb565b620005e7818484620005a0565b505050565b5b818110156200060f5762000603600082620005d0565b600181019050620005ed565b5050565b601f8211156200065e576200062881620004d2565b6200063384620004e7565b8101602085101562000643578190505b6200065b6200065285620004e7565b830182620005ec565b50505b505050565b600082821c905092915050565b6000620006836000198460080262000663565b1980831691505092915050565b60006200069e838362000670565b9150826002028217905092915050565b620006b98262000463565b67ffffffffffffffff811115620006d557620006d462000299565b5b620006e182546200049d565b620006ee82828562000613565b600060209050601f83116001811462000726576000841562000711578287015190505b6200071d858262000690565b8655506200078d565b601f1984166200073686620004d2565b60005b82811015620007605784890151825560018201915060208501945060208101905062000739565b868310156200078057848901516200077c601f89168262000670565b8355505b6001600288020188555050505b505050505050565b608051615712620007b86000396000818161097c015261128801526157126000f3fe608060405234801561001057600080fd5b50600436106101a95760003560e01c80636717e41c116100f9578063b88d4fde11610097578063e6330baa11610071578063e6330baa146104f7578063e985e9c514610513578063f2fde38b14610543578063f301af421461055f576101a9565b8063b88d4fde1461048d578063c87b56dd146104a9578063d547cfb7146104d9576101a9565b80637c34a67c116100d35780637c34a67c146104195780638da5cb5b1461043557806395d89b4114610453578063a22cb46514610471576101a9565b80636717e41c146103af57806370a08231146103df578063715018a61461040f576101a9565b8063238ac93311610166578063402244d111610140578063402244d11461030157806342842e0e146103335780634f6ccce71461034f5780636352211e1461037f576101a9565b8063238ac9331461029757806323b872dd146102b55780632f745c59146102d1576101a9565b806301ffc9a7146101ae57806306fdde03146101de578063078b0fb7146101fc578063081812fc1461022d578063095ea7b31461025d57806318160ddd14610279575b600080fd5b6101c860048036038101906101c39190613690565b610591565b6040516101d591906136d8565b60405180910390f35b6101e66105a3565b6040516101f39190613783565b60405180910390f35b61021660048036038101906102119190613803565b610635565b604051610224929190613a71565b60405180910390f35b61024760048036038101906102429190613ad4565b610810565b6040516102549190613b10565b60405180910390f35b61027760048036038101906102729190613b2b565b610856565b005b61028161096d565b60405161028e9190613b7a565b60405180910390f35b61029f61097a565b6040516102ac9190613b10565b60405180910390f35b6102cf60048036038101906102ca9190613b95565b61099e565b005b6102eb60048036038101906102e69190613b2b565b6109fe565b6040516102f89190613b7a565b60405180910390f35b61031b60048036038101906103169190613ad4565b610aa3565b60405161032a93929190613bf7565b60405180910390f35b61034d60048036038101906103489190613b95565b610b93565b005b61036960048036038101906103649190613ad4565b610bb3565b6040516103769190613b7a565b60405180910390f35b61039960048036038101906103949190613ad4565b610c24565b6040516103a69190613b10565b60405180910390f35b6103c960048036038101906103c49190613ad4565b610caa565b6040516103d691906136d8565b60405180910390f35b6103f960048036038101906103f49190613803565b610cca565b6040516104069190613b7a565b60405180910390f35b610417610d81565b005b610433600480360381019061042e9190613cc6565b610dc4565b005b61043d610ebe565b60405161044a9190613b10565b60405180910390f35b61045b610ee8565b6040516104689190613783565b60405180910390f35b61048b60048036038101906104869190613d99565b610f7a565b005b6104a760048036038101906104a29190613f09565b610f90565b005b6104c360048036038101906104be9190613ad4565b610ff2565b6040516104d09190613783565b60405180910390f35b6104e161104c565b6040516104ee9190613783565b60405180910390f35b610511600480360381019061050c9190613fe2565b6110da565b005b61052d600480360381019061052891906140be565b61137e565b60405161053a91906136d8565b60405180910390f35b61055d60048036038101906105589190613803565b611412565b005b61057960048036038101906105749190613ad4565b611495565b60405161058893929190613bf7565b60405180910390f35b600061059c82611555565b9050919050565b6060600080546105b29061412d565b80601f01602080910402602001604051908101604052809291908181526020018280546105de9061412d565b801561062b5780601f106106005761010080835404028352916020019161062b565b820191906000526020600020905b81548152906001019060200180831161060e57829003601f168201915b5050505050905090565b606080600061064384610cca565b905060008167ffffffffffffffff81111561066157610660613dde565b5b60405190808252806020026020018201604052801561068f5781602001602082028036833780820191505090505b50905060008267ffffffffffffffff8111156106ae576106ad613dde565b5b6040519080825280602002602001820160405280156106e757816020015b6106d46135ff565b8152602001906001900390816106cc5790505b50905060005b8381101561080157600061070188836109fe565b9050600080600061071184610aa3565b92509250925060405180606001604052808481526020018361ffff168152602001828152508686815181106107495761074861415e565b5b6020026020010181905250838786815181106107685761076761415e565b5b6020026020010181815250506107ea6040518060400160405280600381526020017f493d200000000000000000000000000000000000000000000000000000000000815250866040518060400160405280600981526020017f72657761726449643d0000000000000000000000000000000000000000000000815250876115b6565b5050505080806107f9906141bc565b9150506106ed565b50818194509450505050915091565b600061081b82611658565b6004600083815260200190815260200160002060009054906101000a900473ffffffffffffffffffffffffffffffffffffffff169050919050565b600061086182610c24565b90508073ffffffffffffffffffffffffffffffffffffffff168373ffffffffffffffffffffffffffffffffffffffff16036108d1576040517f08c379a00000000000000000000000000000000000000000000000000000000081526004016108c890614276565b60405180910390fd5b8073ffffffffffffffffffffffffffffffffffffffff166108f06116a3565b73ffffffffffffffffffffffffffffffffffffffff16148061091f575061091e816109196116a3565b61137e565b5b61095e576040517f08c379a000000000000000000000000000000000000000000000000000000000815260040161095590614308565b60405180910390fd5b61096883836116ab565b505050565b6000600880549050905090565b7f000000000000000000000000000000000000000000000000000000000000000081565b6109af6109a96116a3565b82611764565b6109ee576040517f08c379a00000000000000000000000000000000000000000000000000000000081526004016109e59061439a565b60405180910390fd5b6109f98383836117f9565b505050565b6000610a0983610cca565b8210610a4a576040517f08c379a0000000000000000000000000000000000000000000000000000000008152600401610a419061442c565b60405180910390fd5b600660008473ffffffffffffffffffffffffffffffffffffffff1673ffffffffffffffffffffffffffffffffffffffff168152602001908152602001600020600083815260200190815260200160002054905092915050565b6060600080600c6000858152602001908152602001600020600001600c600086815260200190815260200160002060010160009054906101000a900461ffff16600c600087815260200190815260200160002060020154828054610b069061412d565b80601f0160208091040260200160405190810160405280929190818152602001828054610b329061412d565b8015610b7f5780601f10610b5457610100808354040283529160200191610b7f565b820191906000526020600020905b815481529060010190602001808311610b6257829003601f168201915b505050505092509250925092509193909250565b610bae83838360405180602001604052806000815250610f90565b505050565b6000610bbd61096d565b8210610bfe576040517f08c379a0000000000000000000000000000000000000000000000000000000008152600401610bf5906144be565b60405180910390fd5b60088281548110610c1257610c1161415e565b5b90600052602060002001549050919050565b600080610c3083611af2565b9050600073ffffffffffffffffffffffffffffffffffffffff168173ffffffffffffffffffffffffffffffffffffffff1603610ca1576040517f08c379a0000000000000000000000000000000000000000000000000000000008152600401610c989061452a565b60405180910390fd5b80915050919050565b600d6020528060005260406000206000915054906101000a900460ff1681565b60008073ffffffffffffffffffffffffffffffffffffffff168273ffffffffffffffffffffffffffffffffffffffff1603610d3a576040517f08c379a0000000000000000000000000000000000000000000000000000000008152600401610d31906145bc565b60405180910390fd5b600360008373ffffffffffffffffffffffffffffffffffffffff1673ffffffffffffffffffffffffffffffffffffffff168152602001908152602001600020549050919050565b610d89611b2f565b6040517f08c379a0000000000000000000000000000000000000000000000000000000008152600401610dbb90614628565b60405180910390fd5b610dcc611b2f565b84848080601f016020809104026020016040519081016040528093929190818152602001838380828437600081840152601f19601f820116905080830192505050505050506000610e1c82611bad565b9050610100811115610e63576040517f08c379a0000000000000000000000000000000000000000000000000000000008152600401610e5a90614694565b60405180910390fd5b60008111610ea6576040517f08c379a0000000000000000000000000000000000000000000000000000000008152600401610e9d90614700565b60405180910390fd5b610eb4888888888888611e66565b5050505050505050565b6000600b60009054906101000a900473ffffffffffffffffffffffffffffffffffffffff16905090565b606060018054610ef79061412d565b80601f0160208091040260200160405190810160405280929190818152602001828054610f239061412d565b8015610f705780601f10610f4557610100808354040283529160200191610f70565b820191906000526020600020905b815481529060010190602001808311610f5357829003601f168201915b5050505050905090565b610f8c610f856116a3565b8383611ff6565b5050565b610fa1610f9b6116a3565b83611764565b610fe0576040517f08c379a0000000000000000000000000000000000000000000000000000000008152600401610fd79061439a565b60405180910390fd5b610fec84848484612162565b50505050565b6060610ffd826121be565b61103c576040517f08c379a000000000000000000000000000000000000000000000000000000000815260040161103390614792565b60405180910390fd5b611045826121ff565b9050919050565b600f80546110599061412d565b80601f01602080910402602001604051908101604052809291908181526020018280546110859061412d565b80156110d25780601f106110a7576101008083540402835291602001916110d2565b820191906000526020600020905b8154815290600101906020018083116110b557829003601f168201915b505050505081565b87878080601f016020809104026020016040519081016040528093929190818152602001838380828437600081840152601f19601f82011690508083019250505050505050600061112a82611bad565b9050610100811115611171576040517f08c379a000000000000000000000000000000000000000000000000000000000815260040161116890614694565b60405180910390fd5b600081116111b4576040517f08c379a00000000000000000000000000000000000000000000000000000000081526004016111ab90614700565b60405180910390fd5b86600d600082815260200190815260200160002060009054906101000a900460ff1615611216576040517f08c379a000000000000000000000000000000000000000000000000000000000815260040161120d906147fe565b60405180910390fd5b6001600d600083815260200190815260200160002060006101000a81548160ff02191690831515021790555060008b8b8b8b8b8b3060405160200161126197969594939291906148ed565b604051602081830303815290604052805190602001209050600061128482612311565b90507f000000000000000000000000000000000000000000000000000000000000000073ffffffffffffffffffffffffffffffffffffffff1661130b8289898080601f016020809104026020016040519081016040528093929190818152602001838380828437600081840152601f19601f82011690508083019250505050505050612347565b73ffffffffffffffffffffffffffffffffffffffff1614611361576040517f08c379a0000000000000000000000000000000000000000000000000000000008152600401611358906149ba565b60405180910390fd5b61136f338e8e8e8d8d611e66565b50505050505050505050505050565b6000600560008473ffffffffffffffffffffffffffffffffffffffff1673ffffffffffffffffffffffffffffffffffffffff16815260200190815260200160002060008373ffffffffffffffffffffffffffffffffffffffff1673ffffffffffffffffffffffffffffffffffffffff16815260200190815260200160002060009054906101000a900460ff16905092915050565b61141a611b2f565b600073ffffffffffffffffffffffffffffffffffffffff168173ffffffffffffffffffffffffffffffffffffffff1603611489576040517f08c379a000000000000000000000000000000000000000000000000000000000815260040161148090614a4c565b60405180910390fd5b6114928161236e565b50565b600c6020528060005260406000206000915090508060000180546114b89061412d565b80601f01602080910402602001604051908101604052809291908181526020018280546114e49061412d565b80156115315780601f1061150657610100808354040283529160200191611531565b820191906000526020600020905b81548152906001019060200180831161151457829003601f168201915b5050505050908060010160009054906101000a900461ffff16908060020154905083565b6000634906490660e01b7bffffffffffffffffffffffffffffffffffffffffffffffffffffffff1916827bffffffffffffffffffffffffffffffffffffffffffffffffffffffff191614806115af57506115ae82612434565b5b9050919050565b611652848484846040516024016115d09493929190614a6c565b6040516020818303038152906040527fc67ea9d1000000000000000000000000000000000000000000000000000000007bffffffffffffffffffffffffffffffffffffffffffffffffffffffff19166020820180517bffffffffffffffffffffffffffffffffffffffffffffffffffffffff83818316178352505050506124ae565b50505050565b611661816121be565b6116a0576040517f08c379a00000000000000000000000000000000000000000000000000000000081526004016116979061452a565b60405180910390fd5b50565b600033905090565b816004600083815260200190815260200160002060006101000a81548173ffffffffffffffffffffffffffffffffffffffff021916908373ffffffffffffffffffffffffffffffffffffffff160217905550808273ffffffffffffffffffffffffffffffffffffffff1661171e83610c24565b73ffffffffffffffffffffffffffffffffffffffff167f8c5be1e5ebec7d5bd14f71427d1e84f3dd0314c0f7b2291e5b200ac8c7c3b92560405160405180910390a45050565b60008061177083610c24565b90508073ffffffffffffffffffffffffffffffffffffffff168473ffffffffffffffffffffffffffffffffffffffff1614806117b257506117b1818561137e565b5b806117f057508373ffffffffffffffffffffffffffffffffffffffff166117d884610810565b73ffffffffffffffffffffffffffffffffffffffff16145b91505092915050565b8273ffffffffffffffffffffffffffffffffffffffff1661181982610c24565b73ffffffffffffffffffffffffffffffffffffffff161461186f576040517f08c379a000000000000000000000000000000000000000000000000000000000815260040161186690614b31565b60405180910390fd5b600073ffffffffffffffffffffffffffffffffffffffff168273ffffffffffffffffffffffffffffffffffffffff16036118de576040517f08c379a00000000000000000000000000000000000000000000000000000000081526004016118d590614bc3565b60405180910390fd5b6118eb83838360016124cf565b8273ffffffffffffffffffffffffffffffffffffffff1661190b82610c24565b73ffffffffffffffffffffffffffffffffffffffff1614611961576040517f08c379a000000000000000000000000000000000000000000000000000000000815260040161195890614b31565b60405180910390fd5b6004600082815260200190815260200160002060006101000a81549073ffffffffffffffffffffffffffffffffffffffff02191690556001600360008573ffffffffffffffffffffffffffffffffffffffff1673ffffffffffffffffffffffffffffffffffffffff168152602001908152602001600020600082825403925050819055506001600360008473ffffffffffffffffffffffffffffffffffffffff1673ffffffffffffffffffffffffffffffffffffffff16815260200190815260200160002060008282540192505081905550816002600083815260200190815260200160002060006101000a81548173ffffffffffffffffffffffffffffffffffffffff021916908373ffffffffffffffffffffffffffffffffffffffff160217905550808273ffffffffffffffffffffffffffffffffffffffff168473ffffffffffffffffffffffffffffffffffffffff167fddf252ad1be2c89b69c2b068fc378daa952ba7f163c4a11628f55a4df523b3ef60405160405180910390a4611aed8383836001612587565b505050565b60006002600083815260200190815260200160002060009054906101000a900473ffffffffffffffffffffffffffffffffffffffff169050919050565b611b376116a3565b73ffffffffffffffffffffffffffffffffffffffff16611b55610ebe565b73ffffffffffffffffffffffffffffffffffffffff1614611bab576040517f08c379a0000000000000000000000000000000000000000000000000000000008152600401611ba290614c2f565b60405180910390fd5b565b6000806000905060008390505b8051821015611e5f57600060f81b6007828481518110611bdd57611bdc61415e565b5b602001015160f81c60f81b7effffffffffffffffffffffffffffffffffffffffffffffffffffffffffffff1916901c7effffffffffffffffffffffffffffffffffffffffffffffffffffffffffffff191603611c4757600182611c409190614c4f565b9150611e4c565b600660f81b7effffffffffffffffffffffffffffffffffffffffffffffffffffffffffffff19166005828481518110611c8357611c8261415e565b5b602001015160f81c60f81b7effffffffffffffffffffffffffffffffffffffffffffffffffffffffffffff1916901c7effffffffffffffffffffffffffffffffffffffffffffffffffffffffffffff191603611ced57600282611ce69190614c4f565b9150611e4b565b600e60f81b7effffffffffffffffffffffffffffffffffffffffffffffffffffffffffffff19166004828481518110611d2957611d2861415e565b5b602001015160f81c60f81b7effffffffffffffffffffffffffffffffffffffffffffffffffffffffffffff1916901c7effffffffffffffffffffffffffffffffffffffffffffffffffffffffffffff191603611d9357600382611d8c9190614c4f565b9150611e4a565b601e60f81b7effffffffffffffffffffffffffffffffffffffffffffffffffffffffffffff19166003828481518110611dcf57611dce61415e565b5b602001015160f81c60f81b7effffffffffffffffffffffffffffffffffffffffffffffffffffffffffffff1916901c7effffffffffffffffffffffffffffffffffffffffffffffffffffffffffffff191603611e3957600482611e329190614c4f565b9150611e49565b600182611e469190614c4f565b91505b5b5b5b8280611e57906141bc565b935050611bba565b5050919050565b60004290506000604051806060016040528088888080601f016020809104026020016040519081016040528093929190818152602001838380828437600081840152601f19601f8201169050808301925050505050505081526020018661ffff1681526020018381525090506000611ede600e61258d565b9050611eea600e61259b565b611ef489826125b1565b611f428186868080601f016020809104026020016040519081016040528093929190818152602001838380828437600081840152601f19601f820116905080830192505050505050506125cf565b81600c60008381526020019081526020016000206000820151816000019081611f6b9190614e2f565b5060208201518160010160006101000a81548161ffff021916908361ffff16021790555060408201518160020155905050808973ffffffffffffffffffffffffffffffffffffffff167fc71e86ec3f2203d2fc8628f5224fcaca0a1454ffb07f07f950b65b7e76d9c0fb84604051611fe39190614f51565b60405180910390a3505050505050505050565b8173ffffffffffffffffffffffffffffffffffffffff168373ffffffffffffffffffffffffffffffffffffffff1603612064576040517f08c379a000000000000000000000000000000000000000000000000000000000815260040161205b90614fbf565b60405180910390fd5b80600560008573ffffffffffffffffffffffffffffffffffffffff1673ffffffffffffffffffffffffffffffffffffffff16815260200190815260200160002060008473ffffffffffffffffffffffffffffffffffffffff1673ffffffffffffffffffffffffffffffffffffffff16815260200190815260200160002060006101000a81548160ff0219169083151502179055508173ffffffffffffffffffffffffffffffffffffffff168373ffffffffffffffffffffffffffffffffffffffff167f17307eab39ab6107e8899845ad3d59bd9653f200f220920489ca2b5937696c318360405161215591906136d8565b60405180910390a3505050565b61216d8484846117f9565b61217984848484612673565b6121b8576040517f08c379a00000000000000000000000000000000000000000000000000000000081526004016121af90615051565b60405180910390fd5b50505050565b60008073ffffffffffffffffffffffffffffffffffffffff166121e083611af2565b73ffffffffffffffffffffffffffffffffffffffff1614159050919050565b606061220a82611658565b6000600a6000848152602001908152602001600020805461222a9061412d565b80601f01602080910402602001604051908101604052809291908181526020018280546122569061412d565b80156122a35780601f10612278576101008083540402835291602001916122a3565b820191906000526020600020905b81548152906001019060200180831161228657829003601f168201915b5050505050905060006122b46127fa565b905060008151036122c957819250505061230c565b6000825111156122fe5780826040516020016122e69291906150a2565b6040516020818303038152906040529250505061230c565b6123078461288c565b925050505b919050565b60007f19457468657265756d205369676e6564204d6573736167653a0a33320000000060005281601c52603c6000209050919050565b600080600061235685856128f4565b9150915061236381612945565b819250505092915050565b6000600b60009054906101000a900473ffffffffffffffffffffffffffffffffffffffff16905081600b60006101000a81548173ffffffffffffffffffffffffffffffffffffffff021916908373ffffffffffffffffffffffffffffffffffffffff1602179055508173ffffffffffffffffffffffffffffffffffffffff168173ffffffffffffffffffffffffffffffffffffffff167f8be0079c531659141344cd1fd0a4f28419497f9722a3daafe3b4186f6b6457e060405160405180910390a35050565b60007f780e9d63000000000000000000000000000000000000000000000000000000007bffffffffffffffffffffffffffffffffffffffffffffffffffffffff1916827bffffffffffffffffffffffffffffffffffffffffffffffffffffffff191614806124a757506124a682612aab565b5b9050919050565b60006a636f6e736f6c652e6c6f679050600080835160208501845afa505050565b600073ffffffffffffffffffffffffffffffffffffffff168473ffffffffffffffffffffffffffffffffffffffff1614806125365750600073ffffffffffffffffffffffffffffffffffffffff168373ffffffffffffffffffffffffffffffffffffffff16145b612575576040517f08c379a000000000000000000000000000000000000000000000000000000000815260040161256c90615138565b60405180910390fd5b61258184848484612b8d565b50505050565b50505050565b600081600001549050919050565b6001816000016000828254019250508190555050565b6125cb828260405180602001604052806000815250612ceb565b5050565b6125d8826121be565b612617576040517f08c379a000000000000000000000000000000000000000000000000000000000815260040161260e906151ca565b60405180910390fd5b80600a600084815260200190815260200160002090816126379190614e2f565b507ff8e1a15aba9398e019f0b49df1a4fde98ee17ae345cb5f6b5e2c27f5033e8ce7826040516126679190613b7a565b60405180910390a15050565b60006126948473ffffffffffffffffffffffffffffffffffffffff16612d46565b156127ed578373ffffffffffffffffffffffffffffffffffffffff1663150b7a026126bd6116a3565b8786866040518563ffffffff1660e01b81526004016126df949392919061523f565b6020604051808303816000875af192505050801561271b57506040513d601f19601f8201168201806040525081019061271891906152a0565b60015b61279d573d806000811461274b576040519150601f19603f3d011682016040523d82523d6000602084013e612750565b606091505b506000815103612795576040517f08c379a000000000000000000000000000000000000000000000000000000000815260040161278c90615051565b60405180910390fd5b805181602001fd5b63150b7a0260e01b7bffffffffffffffffffffffffffffffffffffffffffffffffffffffff1916817bffffffffffffffffffffffffffffffffffffffffffffffffffffffff1916149150506127f2565b600190505b949350505050565b6060600f80546128099061412d565b80601f01602080910402602001604051908101604052809291908181526020018280546128359061412d565b80156128825780601f1061285757610100808354040283529160200191612882565b820191906000526020600020905b81548152906001019060200180831161286557829003601f168201915b5050505050905090565b606061289782611658565b60006128a16127fa565b905060008151116128c157604051806020016040528060008152506128ec565b806128cb84612d69565b6040516020016128dc9291906150a2565b6040516020818303038152906040525b915050919050565b60008060418351036129355760008060006020860151925060408601519150606086015160001a905061292987828585612e37565b9450945050505061293e565b60006002915091505b9250929050565b60006004811115612959576129586152cd565b5b81600481111561296c5761296b6152cd565b5b0315612aa85760016004811115612986576129856152cd565b5b816004811115612999576129986152cd565b5b036129d9576040517f08c379a00000000000000000000000000000000000000000000000000000000081526004016129d090615348565b60405180910390fd5b600260048111156129ed576129ec6152cd565b5b816004811115612a00576129ff6152cd565b5b03612a40576040517f08c379a0000000000000000000000000000000000000000000000000000000008152600401612a37906153b4565b60405180910390fd5b60036004811115612a5457612a536152cd565b5b816004811115612a6757612a666152cd565b5b03612aa7576040517f08c379a0000000000000000000000000000000000000000000000000000000008152600401612a9e90615446565b60405180910390fd5b5b50565b60007f80ac58cd000000000000000000000000000000000000000000000000000000007bffffffffffffffffffffffffffffffffffffffffffffffffffffffff1916827bffffffffffffffffffffffffffffffffffffffffffffffffffffffff19161480612b7657507f5b5e139f000000000000000000000000000000000000000000000000000000007bffffffffffffffffffffffffffffffffffffffffffffffffffffffff1916827bffffffffffffffffffffffffffffffffffffffffffffffffffffffff1916145b80612b865750612b8582612f19565b5b9050919050565b612b9984848484612f83565b6001811115612bdd576040517f08c379a0000000000000000000000000000000000000000000000000000000008152600401612bd4906154d8565b60405180910390fd5b6000829050600073ffffffffffffffffffffffffffffffffffffffff168573ffffffffffffffffffffffffffffffffffffffff1603612c2457612c1f81612f89565b612c63565b8373ffffffffffffffffffffffffffffffffffffffff168573ffffffffffffffffffffffffffffffffffffffff1614612c6257612c618582612fd2565b5b5b600073ffffffffffffffffffffffffffffffffffffffff168473ffffffffffffffffffffffffffffffffffffffff1603612ca557612ca08161313f565b612ce4565b8473ffffffffffffffffffffffffffffffffffffffff168473ffffffffffffffffffffffffffffffffffffffff1614612ce357612ce28482613210565b5b5b5050505050565b612cf5838361328f565b612d026000848484612673565b612d41576040517f08c379a0000000000000000000000000000000000000000000000000000000008152600401612d3890615051565b60405180910390fd5b505050565b6000808273ffffffffffffffffffffffffffffffffffffffff163b119050919050565b606060006001612d78846134ac565b01905060008167ffffffffffffffff811115612d9757612d96613dde565b5b6040519080825280601f01601f191660200182016040528015612dc95781602001600182028036833780820191505090505b509050600082602001820190505b600115612e2c578080600190039150507f3031323334353637383961626364656600000000000000000000000000000000600a86061a8153600a8581612e2057612e1f6154f8565b5b04945060008503612dd7575b819350505050919050565b6000807f7fffffffffffffffffffffffffffffff5d576e7357a4501ddfe92f46681b20a08360001c1115612e72576000600391509150612f10565b600060018787878760405160008152602001604052604051612e97949392919061555c565b6020604051602081039080840390855afa158015612eb9573d6000803e3d6000fd5b505050602060405103519050600073ffffffffffffffffffffffffffffffffffffffff168173ffffffffffffffffffffffffffffffffffffffff1603612f0757600060019250925050612f10565b80600092509250505b94509492505050565b60007f01ffc9a7000000000000000000000000000000000000000000000000000000007bffffffffffffffffffffffffffffffffffffffffffffffffffffffff1916827bffffffffffffffffffffffffffffffffffffffffffffffffffffffff1916149050919050565b50505050565b6008805490506009600083815260200190815260200160002081905550600881908060018154018082558091505060019003906000526020600020016000909190919091505550565b60006001612fdf84610cca565b612fe991906155a1565b90506000600760008481526020019081526020016000205490508181146130ce576000600660008673ffffffffffffffffffffffffffffffffffffffff1673ffffffffffffffffffffffffffffffffffffffff168152602001908152602001600020600084815260200190815260200160002054905080600660008773ffffffffffffffffffffffffffffffffffffffff1673ffffffffffffffffffffffffffffffffffffffff168152602001908152602001600020600084815260200190815260200160002081905550816007600083815260200190815260200160002081905550505b6007600084815260200190815260200160002060009055600660008573ffffffffffffffffffffffffffffffffffffffff1673ffffffffffffffffffffffffffffffffffffffff16815260200190815260200160002060008381526020019081526020016000206000905550505050565b6000600160088054905061315391906155a1565b90506000600960008481526020019081526020016000205490506000600883815481106131835761318261415e565b5b9060005260206000200154905080600883815481106131a5576131a461415e565b5b9060005260206000200181905550816009600083815260200190815260200160002081905550600960008581526020019081526020016000206000905560088054806131f4576131f36155d5565b5b6001900381819060005260206000200160009055905550505050565b600061321b83610cca565b905081600660008573ffffffffffffffffffffffffffffffffffffffff1673ffffffffffffffffffffffffffffffffffffffff168152602001908152602001600020600083815260200190815260200160002081905550806007600084815260200190815260200160002081905550505050565b600073ffffffffffffffffffffffffffffffffffffffff168273ffffffffffffffffffffffffffffffffffffffff16036132fe576040517f08c379a00000000000000000000000000000000000000000000000000000000081526004016132f590615650565b60405180910390fd5b613307816121be565b15613347576040517f08c379a000000000000000000000000000000000000000000000000000000000815260040161333e906156bc565b60405180910390fd5b6133556000838360016124cf565b61335e816121be565b1561339e576040517f08c379a0000000000000000000000000000000000000000000000000000000008152600401613395906156bc565b60405180910390fd5b6001600360008473ffffffffffffffffffffffffffffffffffffffff1673ffffffffffffffffffffffffffffffffffffffff16815260200190815260200160002060008282540192505081905550816002600083815260200190815260200160002060006101000a81548173ffffffffffffffffffffffffffffffffffffffff021916908373ffffffffffffffffffffffffffffffffffffffff160217905550808273ffffffffffffffffffffffffffffffffffffffff16600073ffffffffffffffffffffffffffffffffffffffff167fddf252ad1be2c89b69c2b068fc378daa952ba7f163c4a11628f55a4df523b3ef60405160405180910390a46134a8600083836001612587565b5050565b600080600090507a184f03e93ff9f4daa797ed6e38ed64bf6a1f010000000000000000831061350a577a184f03e93ff9f4daa797ed6e38ed64bf6a1f0100000000000000008381613500576134ff6154f8565b5b0492506040810190505b6d04ee2d6d415b85acef81000000008310613547576d04ee2d6d415b85acef8100000000838161353d5761353c6154f8565b5b0492506020810190505b662386f26fc10000831061357657662386f26fc10000838161356c5761356b6154f8565b5b0492506010810190505b6305f5e100831061359f576305f5e1008381613595576135946154f8565b5b0492506008810190505b61271083106135c45761271083816135ba576135b96154f8565b5b0492506004810190505b606483106135e757606483816135dd576135dc6154f8565b5b0492506002810190505b600a83106135f6576001810190505b80915050919050565b604051806060016040528060608152602001600061ffff168152602001600081525090565b6000604051905090565b600080fd5b600080fd5b60007fffffffff0000000000000000000000000000000000000000000000000000000082169050919050565b61366d81613638565b811461367857600080fd5b50565b60008135905061368a81613664565b92915050565b6000602082840312156136a6576136a561362e565b5b60006136b48482850161367b565b91505092915050565b60008115159050919050565b6136d2816136bd565b82525050565b60006020820190506136ed60008301846136c9565b92915050565b600081519050919050565b600082825260208201905092915050565b60005b8381101561372d578082015181840152602081019050613712565b60008484015250505050565b6000601f19601f8301169050919050565b6000613755826136f3565b61375f81856136fe565b935061376f81856020860161370f565b61377881613739565b840191505092915050565b6000602082019050818103600083015261379d818461374a565b905092915050565b600073ffffffffffffffffffffffffffffffffffffffff82169050919050565b60006137d0826137a5565b9050919050565b6137e0816137c5565b81146137eb57600080fd5b50565b6000813590506137fd816137d7565b92915050565b6000602082840312156138195761381861362e565b5b6000613827848285016137ee565b91505092915050565b600081519050919050565b600082825260208201905092915050565b6000819050602082019050919050565b6000819050919050565b61386f8161385c565b82525050565b60006138818383613866565b60208301905092915050565b6000602082019050919050565b60006138a582613830565b6138af818561383b565b93506138ba8361384c565b8060005b838110156138eb5781516138d28882613875565b97506138dd8361388d565b9250506001810190506138be565b5085935050505092915050565b600081519050919050565b600082825260208201905092915050565b6000819050602082019050919050565b600082825260208201905092915050565b6000613940826136f3565b61394a8185613924565b935061395a81856020860161370f565b61396381613739565b840191505092915050565b600061ffff82169050919050565b6139858161396e565b82525050565b600060608301600083015184820360008601526139a88282613935565b91505060208301516139bd602086018261397c565b5060408301516139d06040860182613866565b508091505092915050565b60006139e7838361398b565b905092915050565b6000602082019050919050565b6000613a07826138f8565b613a118185613903565b935083602082028501613a2385613914565b8060005b85811015613a5f5784840389528151613a4085826139db565b9450613a4b836139ef565b925060208a01995050600181019050613a27565b50829750879550505050505092915050565b60006040820190508181036000830152613a8b818561389a565b90508181036020830152613a9f81846139fc565b90509392505050565b613ab18161385c565b8114613abc57600080fd5b50565b600081359050613ace81613aa8565b92915050565b600060208284031215613aea57613ae961362e565b5b6000613af884828501613abf565b91505092915050565b613b0a816137c5565b82525050565b6000602082019050613b256000830184613b01565b92915050565b60008060408385031215613b4257613b4161362e565b5b6000613b50858286016137ee565b9250506020613b6185828601613abf565b9150509250929050565b613b748161385c565b82525050565b6000602082019050613b8f6000830184613b6b565b92915050565b600080600060608486031215613bae57613bad61362e565b5b6000613bbc868287016137ee565b9350506020613bcd868287016137ee565b9250506040613bde86828701613abf565b9150509250925092565b613bf18161396e565b82525050565b60006060820190508181036000830152613c11818661374a565b9050613c206020830185613be8565b613c2d6040830184613b6b565b949350505050565b600080fd5b600080fd5b600080fd5b60008083601f840112613c5a57613c59613c35565b5b8235905067ffffffffffffffff811115613c7757613c76613c3a565b5b602083019150836001820283011115613c9357613c92613c3f565b5b9250929050565b613ca38161396e565b8114613cae57600080fd5b50565b600081359050613cc081613c9a565b92915050565b60008060008060008060808789031215613ce357613ce261362e565b5b6000613cf189828a016137ee565b965050602087013567ffffffffffffffff811115613d1257613d11613633565b5b613d1e89828a01613c44565b95509550506040613d3189828a01613cb1565b935050606087013567ffffffffffffffff811115613d5257613d51613633565b5b613d5e89828a01613c44565b92509250509295509295509295565b613d76816136bd565b8114613d8157600080fd5b50565b600081359050613d9381613d6d565b92915050565b60008060408385031215613db057613daf61362e565b5b6000613dbe858286016137ee565b9250506020613dcf85828601613d84565b9150509250929050565b600080fd5b7f4e487b7100000000000000000000000000000000000000000000000000000000600052604160045260246000fd5b613e1682613739565b810181811067ffffffffffffffff82111715613e3557613e34613dde565b5b80604052505050565b6000613e48613624565b9050613e548282613e0d565b919050565b600067ffffffffffffffff821115613e7457613e73613dde565b5b613e7d82613739565b9050602081019050919050565b82818337600083830152505050565b6000613eac613ea784613e59565b613e3e565b905082815260208101848484011115613ec857613ec7613dd9565b5b613ed3848285613e8a565b509392505050565b600082601f830112613ef057613eef613c35565b5b8135613f00848260208601613e99565b91505092915050565b60008060008060808587031215613f2357613f2261362e565b5b6000613f31878288016137ee565b9450506020613f42878288016137ee565b9350506040613f5387828801613abf565b925050606085013567ffffffffffffffff811115613f7457613f73613633565b5b613f8087828801613edb565b91505092959194509250565b60008083601f840112613fa257613fa1613c35565b5b8235905067ffffffffffffffff811115613fbf57613fbe613c3a565b5b602083019150836001820283011115613fdb57613fda613c3f565b5b9250929050565b60008060008060008060008060a0898b0312156140025761400161362e565b5b600089013567ffffffffffffffff8111156140205761401f613633565b5b61402c8b828c01613c44565b9850985050602061403f8b828c01613cb1565b96505060406140508b828c01613abf565b955050606089013567ffffffffffffffff81111561407157614070613633565b5b61407d8b828c01613c44565b9450945050608089013567ffffffffffffffff8111156140a05761409f613633565b5b6140ac8b828c01613f8c565b92509250509295985092959890939650565b600080604083850312156140d5576140d461362e565b5b60006140e3858286016137ee565b92505060206140f4858286016137ee565b9150509250929050565b7f4e487b7100000000000000000000000000000000000000000000000000000000600052602260045260246000fd5b6000600282049050600182168061414557607f821691505b602082108103614158576141576140fe565b5b50919050565b7f4e487b7100000000000000000000000000000000000000000000000000000000600052603260045260246000fd5b7f4e487b7100000000000000000000000000000000000000000000000000000000600052601160045260246000fd5b60006141c78261385c565b91507fffffffffffffffffffffffffffffffffffffffffffffffffffffffffffffffff82036141f9576141f861418d565b5b600182019050919050565b7f4552433732313a20617070726f76616c20746f2063757272656e74206f776e6560008201527f7200000000000000000000000000000000000000000000000000000000000000602082015250565b60006142606021836136fe565b915061426b82614204565b604082019050919050565b6000602082019050818103600083015261428f81614253565b9050919050565b7f4552433732313a20617070726f76652063616c6c6572206973206e6f7420746f60008201527f6b656e206f776e6572206f7220617070726f76656420666f7220616c6c000000602082015250565b60006142f2603d836136fe565b91506142fd82614296565b604082019050919050565b60006020820190508181036000830152614321816142e5565b9050919050565b7f4552433732313a2063616c6c6572206973206e6f7420746f6b656e206f776e6560008201527f72206f7220617070726f76656400000000000000000000000000000000000000602082015250565b6000614384602d836136fe565b915061438f82614328565b604082019050919050565b600060208201905081810360008301526143b381614377565b9050919050565b7f455243373231456e756d657261626c653a206f776e657220696e646578206f7560008201527f74206f6620626f756e6473000000000000000000000000000000000000000000602082015250565b6000614416602b836136fe565b9150614421826143ba565b604082019050919050565b6000602082019050818103600083015261444581614409565b9050919050565b7f455243373231456e756d657261626c653a20676c6f62616c20696e646578206f60008201527f7574206f6620626f756e64730000000000000000000000000000000000000000602082015250565b60006144a8602c836136fe565b91506144b38261444c565b604082019050919050565b600060208201905081810360008301526144d78161449b565b9050919050565b7f4552433732313a20696e76616c696420746f6b656e2049440000000000000000600082015250565b60006145146018836136fe565b915061451f826144de565b602082019050919050565b6000602082019050818103600083015261454381614507565b9050919050565b7f4552433732313a2061646472657373207a65726f206973206e6f74206120766160008201527f6c6964206f776e65720000000000000000000000000000000000000000000000602082015250565b60006145a66029836136fe565b91506145b18261454a565b604082019050919050565b600060208201905081810360008301526145d581614599565b9050919050565b7f43616e27742072656e6f756e63654f776e657273686970206865726500000000600082015250565b6000614612601c836136fe565b915061461d826145dc565b602082019050919050565b6000602082019050818103600083015261464181614605565b9050919050565b7f5469746c6520697320746f6f206c6f6e67000000000000000000000000000000600082015250565b600061467e6011836136fe565b915061468982614648565b602082019050919050565b600060208201905081810360008301526146ad81614671565b9050919050565b7f5469746c652063616e6e6f7420626520626c616e6b0000000000000000000000600082015250565b60006146ea6015836136fe565b91506146f5826146b4565b602082019050919050565b60006020820190508181036000830152614719816146dd565b9050919050565b7f45524337323155524953746f726167653a2055524920717565727920666f722060008201527f6e6f6e6578697374656e7420746f6b656e000000000000000000000000000000602082015250565b600061477c6031836136fe565b915061478782614720565b604082019050919050565b600060208201905081810360008301526147ab8161476f565b9050919050565b7f5369676e617475726520616c7265616479207573656400000000000000000000600082015250565b60006147e86016836136fe565b91506147f3826147b2565b602082019050919050565b60006020820190508181036000830152614817816147db565b9050919050565b600081905092915050565b6000614835838561481e565b9350614842838584613e8a565b82840190509392505050565b60008160f01b9050919050565b60006148668261484e565b9050919050565b61487e6148798261396e565b61485b565b82525050565b6000819050919050565b61489f61489a8261385c565b614884565b82525050565b60008160601b9050919050565b60006148bd826148a5565b9050919050565b60006148cf826148b2565b9050919050565b6148e76148e2826137c5565b6148c4565b82525050565b60006148fa82898b614829565b9150614906828861486d565b600282019150614916828761488e565b602082019150614927828587614829565b915061493382846148d6565b60148201915081905098975050505050505050565b7f496e76616c6964206261636b656e64207369676e61747572652e204d696e742060008201527f6e6f7420616c6c6f7765642e0000000000000000000000000000000000000000602082015250565b60006149a4602c836136fe565b91506149af82614948565b604082019050919050565b600060208201905081810360008301526149d381614997565b9050919050565b7f4f776e61626c653a206e6577206f776e657220697320746865207a65726f206160008201527f6464726573730000000000000000000000000000000000000000000000000000602082015250565b6000614a366026836136fe565b9150614a41826149da565b604082019050919050565b60006020820190508181036000830152614a6581614a29565b9050919050565b60006080820190508181036000830152614a86818761374a565b9050614a956020830186613b6b565b8181036040830152614aa7818561374a565b9050614ab66060830184613b6b565b95945050505050565b7f4552433732313a207472616e736665722066726f6d20696e636f72726563742060008201527f6f776e6572000000000000000000000000000000000000000000000000000000602082015250565b6000614b1b6025836136fe565b9150614b2682614abf565b604082019050919050565b60006020820190508181036000830152614b4a81614b0e565b9050919050565b7f4552433732313a207472616e7366657220746f20746865207a65726f2061646460008201527f7265737300000000000000000000000000000000000000000000000000000000602082015250565b6000614bad6024836136fe565b9150614bb882614b51565b604082019050919050565b60006020820190508181036000830152614bdc81614ba0565b9050919050565b7f4f776e61626c653a2063616c6c6572206973206e6f7420746865206f776e6572600082015250565b6000614c196020836136fe565b9150614c2482614be3565b602082019050919050565b60006020820190508181036000830152614c4881614c0c565b9050919050565b6000614c5a8261385c565b9150614c658361385c565b9250828201905080821115614c7d57614c7c61418d565b5b92915050565b60008190508160005260206000209050919050565b60006020601f8301049050919050565b600082821b905092915050565b600060088302614ce57fffffffffffffffffffffffffffffffffffffffffffffffffffffffffffffffff82614ca8565b614cef8683614ca8565b95508019841693508086168417925050509392505050565b6000819050919050565b6000614d2c614d27614d228461385c565b614d07565b61385c565b9050919050565b6000819050919050565b614d4683614d11565b614d5a614d5282614d33565b848454614cb5565b825550505050565b600090565b614d6f614d62565b614d7a818484614d3d565b505050565b5b81811015614d9e57614d93600082614d67565b600181019050614d80565b5050565b601f821115614de357614db481614c83565b614dbd84614c98565b81016020851015614dcc578190505b614de0614dd885614c98565b830182614d7f565b50505b505050565b600082821c905092915050565b6000614e0660001984600802614de8565b1980831691505092915050565b6000614e1f8383614df5565b9150826002028217905092915050565b614e38826136f3565b67ffffffffffffffff811115614e5157614e50613dde565b5b614e5b825461412d565b614e66828285614da2565b600060209050601f831160018114614e995760008415614e87578287015190505b614e918582614e13565b865550614ef9565b601f198416614ea786614c83565b60005b82811015614ecf57848901518255600182019150602085019450602081019050614eaa565b86831015614eec5784890151614ee8601f891682614df5565b8355505b6001600288020188555050505b505050505050565b60006060830160008301518482036000860152614f1e8282613935565b9150506020830151614f33602086018261397c565b506040830151614f466040860182613866565b508091505092915050565b60006020820190508181036000830152614f6b8184614f01565b905092915050565b7f4552433732313a20617070726f766520746f2063616c6c657200000000000000600082015250565b6000614fa96019836136fe565b9150614fb482614f73565b602082019050919050565b60006020820190508181036000830152614fd881614f9c565b9050919050565b7f4552433732313a207472616e7366657220746f206e6f6e20455243373231526560008201527f63656976657220696d706c656d656e7465720000000000000000000000000000602082015250565b600061503b6032836136fe565b915061504682614fdf565b604082019050919050565b6000602082019050818103600083015261506a8161502e565b9050919050565b600061507c826136f3565b615086818561481e565b935061509681856020860161370f565b80840191505092915050565b60006150ae8285615071565b91506150ba8284615071565b91508190509392505050565b7f546f6b656e206f776e657273686970206973206e6f6e207472616e736665727260008201527f61626c6500000000000000000000000000000000000000000000000000000000602082015250565b60006151226024836136fe565b915061512d826150c6565b604082019050919050565b6000602082019050818103600083015261515181615115565b9050919050565b7f45524337323155524953746f726167653a2055524920736574206f66206e6f6e60008201527f6578697374656e7420746f6b656e000000000000000000000000000000000000602082015250565b60006151b4602e836136fe565b91506151bf82615158565b604082019050919050565b600060208201905081810360008301526151e3816151a7565b9050919050565b600081519050919050565b600082825260208201905092915050565b6000615211826151ea565b61521b81856151f5565b935061522b81856020860161370f565b61523481613739565b840191505092915050565b60006080820190506152546000830187613b01565b6152616020830186613b01565b61526e6040830185613b6b565b81810360608301526152808184615206565b905095945050505050565b60008151905061529a81613664565b92915050565b6000602082840312156152b6576152b561362e565b5b60006152c48482850161528b565b91505092915050565b7f4e487b7100000000000000000000000000000000000000000000000000000000600052602160045260246000fd5b7f45434453413a20696e76616c6964207369676e61747572650000000000000000600082015250565b60006153326018836136fe565b915061533d826152fc565b602082019050919050565b6000602082019050818103600083015261536181615325565b9050919050565b7f45434453413a20696e76616c6964207369676e6174757265206c656e67746800600082015250565b600061539e601f836136fe565b91506153a982615368565b602082019050919050565b600060208201905081810360008301526153cd81615391565b9050919050565b7f45434453413a20696e76616c6964207369676e6174757265202773272076616c60008201527f7565000000000000000000000000000000000000000000000000000000000000602082015250565b60006154306022836136fe565b915061543b826153d4565b604082019050919050565b6000602082019050818103600083015261545f81615423565b9050919050565b7f455243373231456e756d657261626c653a20636f6e736563757469766520747260008201527f616e7366657273206e6f7420737570706f727465640000000000000000000000602082015250565b60006154c26035836136fe565b91506154cd82615466565b604082019050919050565b600060208201905081810360008301526154f1816154b5565b9050919050565b7f4e487b7100000000000000000000000000000000000000000000000000000000600052601260045260246000fd5b6000819050919050565b61553a81615527565b82525050565b600060ff82169050919050565b61555681615540565b82525050565b60006080820190506155716000830187615531565b61557e602083018661554d565b61558b6040830185615531565b6155986060830184615531565b95945050505050565b60006155ac8261385c565b91506155b78361385c565b92508282039050818111156155cf576155ce61418d565b5b92915050565b7f4e487b7100000000000000000000000000000000000000000000000000000000600052603160045260246000fd5b7f4552433732313a206d696e7420746f20746865207a65726f2061646472657373600082015250565b600061563a6020836136fe565b915061564582615604565b602082019050919050565b600060208201905081810360008301526156698161562d565b9050919050565b7f4552433732313a20746f6b656e20616c7265616479206d696e74656400000000600082015250565b60006156a6601c836136fe565b91506156b182615670565b602082019050919050565b600060208201905081810360008301526156d581615699565b905091905056fea2646970667358221220721115650a98be8894edf948a756854e805ac70ac22251d61382e03f5b87722264736f6c63430008120033",
  "linkReferences": {},
  "deployedLinkReferences": {}
}