{
  "_format": "hh-sol-artifact-1",
  "contractName": "RewardToken",
  "sourceName": "contracts/Reward.sol",
  "abi": [
    {
      "inputs": [
        {
          "internalType": "address",
          "name": "_signer",
          "type": "address"
        },
        {
          "internalType": "string",
          "name": "_baseTokenURI",
          "type": "string"
        }
      ],
      "stateMutability": "nonpayable",
      "type": "constructor"
    },
    {
      "anonymous": false,
      "inputs": [
        {
          "indexed": true,
          "internalType": "address",
          "name": "owner",
          "type": "address"
        },
        {
          "indexed": true,
          "internalType": "address",
          "name": "approved",
          "type": "address"
        },
        {
          "indexed": true,
          "internalType": "uint256",
          "name": "tokenId",
          "type": "uint256"
        }
      ],
      "name": "Approval",
      "type": "event"
    },
    {
      "anonymous": false,
      "inputs": [
        {
          "indexed": true,
          "internalType": "address",
          "name": "owner",
          "type": "address"
        },
        {
          "indexed": true,
          "internalType": "address",
          "name": "operator",
          "type": "address"
        },
        {
          "indexed": false,
          "internalType": "bool",
          "name": "approved",
          "type": "bool"
        }
      ],
      "name": "ApprovalForAll",
      "type": "event"
    },
    {
      "anonymous": false,
      "inputs": [
        {
          "indexed": false,
          "internalType": "uint256",
          "name": "_fromTokenId",
          "type": "uint256"
        },
        {
          "indexed": false,
          "internalType": "uint256",
          "name": "_toTokenId",
          "type": "uint256"
        }
      ],
      "name": "BatchMetadataUpdate",
      "type": "event"
    },
    {
      "anonymous": false,
      "inputs": [
        {
          "indexed": false,
          "internalType": "uint256",
          "name": "_tokenId",
          "type": "uint256"
        }
      ],
      "name": "MetadataUpdate",
      "type": "event"
    },
    {
      "anonymous": false,
      "inputs": [
        {
          "indexed": true,
          "internalType": "address",
          "name": "owner",
          "type": "address"
        },
        {
          "indexed": true,
          "internalType": "uint256",
          "name": "tokenId",
          "type": "uint256"
        },
        {
          "components": [
            {
              "internalType": "string",
              "name": "title",
              "type": "string"
            },
            {
              "internalType": "uint16",
              "name": "issuerId",
              "type": "uint16"
            },
            {
              "internalType": "uint256",
              "name": "createdAt",
              "type": "uint256"
            }
          ],
          "indexed": false,
          "internalType": "struct RewardToken.TokenData",
          "name": "tokenData",
          "type": "tuple"
        }
      ],
      "name": "NewReward",
      "type": "event"
    },
    {
      "anonymous": false,
      "inputs": [
        {
          "indexed": true,
          "internalType": "address",
          "name": "previousOwner",
          "type": "address"
        },
        {
          "indexed": true,
          "internalType": "address",
          "name": "newOwner",
          "type": "address"
        }
      ],
      "name": "OwnershipTransferred",
      "type": "event"
    },
    {
      "anonymous": false,
      "inputs": [
        {
          "indexed": true,
          "internalType": "address",
          "name": "from",
          "type": "address"
        },
        {
          "indexed": true,
          "internalType": "address",
          "name": "to",
          "type": "address"
        },
        {
          "indexed": true,
          "internalType": "uint256",
          "name": "tokenId",
          "type": "uint256"
        }
      ],
      "name": "Transfer",
      "type": "event"
    },
    {
      "inputs": [
        {
          "internalType": "address",
          "name": "to",
          "type": "address"
        },
        {
          "internalType": "uint256",
          "name": "tokenId",
          "type": "uint256"
        }
      ],
      "name": "approve",
      "outputs": [],
      "stateMutability": "nonpayable",
      "type": "function"
    },
    {
      "inputs": [
        {
          "internalType": "address",
          "name": "owner",
          "type": "address"
        }
      ],
      "name": "balanceOf",
      "outputs": [
        {
          "internalType": "uint256",
          "name": "",
          "type": "uint256"
        }
      ],
      "stateMutability": "view",
      "type": "function"
    },
    {
      "inputs": [],
      "name": "baseTokenURI",
      "outputs": [
        {
          "internalType": "string",
          "name": "",
          "type": "string"
        }
      ],
      "stateMutability": "view",
      "type": "function"
    },
    {
      "inputs": [
        {
          "internalType": "uint256",
          "name": "tokenId",
          "type": "uint256"
        }
      ],
      "name": "getApproved",
      "outputs": [
        {
          "internalType": "address",
          "name": "",
          "type": "address"
        }
      ],
      "stateMutability": "view",
      "type": "function"
    },
    {
      "inputs": [
        {
          "internalType": "uint256",
          "name": "tokenId",
          "type": "uint256"
        }
      ],
      "name": "getRewardOverview",
      "outputs": [
        {
          "internalType": "string",
          "name": "",
          "type": "string"
        },
        {
          "internalType": "uint16",
          "name": "",
          "type": "uint16"
        },
        {
          "internalType": "uint256",
          "name": "",
          "type": "uint256"
        },
        {
          "internalType": "string",
          "name": "",
          "type": "string"
        }
      ],
      "stateMutability": "view",
      "type": "function"
    },
    {
      "inputs": [
        {
          "internalType": "address",
          "name": "user",
          "type": "address"
        }
      ],
      "name": "getUserRewards",
      "outputs": [
        {
          "internalType": "uint256[]",
          "name": "",
          "type": "uint256[]"
        },
        {
          "components": [
            {
              "internalType": "string",
              "name": "title",
              "type": "string"
            },
            {
              "internalType": "uint16",
              "name": "issuerId",
              "type": "uint16"
            },
            {
              "internalType": "uint256",
              "name": "createdAt",
              "type": "uint256"
            },
            {
              "internalType": "string",
              "name": "uri",
              "type": "string"
            }
          ],
          "internalType": "struct RewardToken.TokenOverview[]",
          "name": "",
          "type": "tuple[]"
        }
      ],
      "stateMutability": "view",
      "type": "function"
    },
    {
      "inputs": [
        {
          "internalType": "address",
          "name": "owner",
          "type": "address"
        },
        {
          "internalType": "address",
          "name": "operator",
          "type": "address"
        }
      ],
      "name": "isApprovedForAll",
      "outputs": [
        {
          "internalType": "bool",
          "name": "",
          "type": "bool"
        }
      ],
      "stateMutability": "view",
      "type": "function"
    },
    {
      "inputs": [
        {
          "internalType": "string",
          "name": "title",
          "type": "string"
        },
        {
          "internalType": "uint16",
          "name": "issuerId",
          "type": "uint16"
        },
        {
          "internalType": "uint256",
          "name": "nonce",
          "type": "uint256"
        },
        {
          "internalType": "string",
          "name": "uri",
          "type": "string"
        },
        {
          "internalType": "bytes",
          "name": "signature",
          "type": "bytes"
        }
      ],
      "name": "mint",
      "outputs": [],
      "stateMutability": "nonpayable",
      "type": "function"
    },
    {
      "inputs": [
        {
          "internalType": "address",
          "name": "beneficiary",
          "type": "address"
        },
        {
          "internalType": "string",
          "name": "title",
          "type": "string"
        },
        {
          "internalType": "uint16",
          "name": "issuerId",
          "type": "uint16"
        },
        {
          "internalType": "string",
          "name": "uri",
          "type": "string"
        }
      ],
      "name": "mintGift",
      "outputs": [],
      "stateMutability": "nonpayable",
      "type": "function"
    },
    {
      "inputs": [],
      "name": "name",
      "outputs": [
        {
          "internalType": "string",
          "name": "",
          "type": "string"
        }
      ],
      "stateMutability": "view",
      "type": "function"
    },
    {
      "inputs": [],
      "name": "owner",
      "outputs": [
        {
          "internalType": "address",
          "name": "",
          "type": "address"
        }
      ],
      "stateMutability": "view",
      "type": "function"
    },
    {
      "inputs": [
        {
          "internalType": "uint256",
          "name": "tokenId",
          "type": "uint256"
        }
      ],
      "name": "ownerOf",
      "outputs": [
        {
          "internalType": "address",
          "name": "",
          "type": "address"
        }
      ],
      "stateMutability": "view",
      "type": "function"
    },
    {
      "inputs": [],
      "name": "renounceOwnership",
      "outputs": [],
      "stateMutability": "view",
      "type": "function"
    },
    {
      "inputs": [
        {
          "internalType": "uint256",
          "name": "",
          "type": "uint256"
        }
      ],
      "name": "rewards",
      "outputs": [
        {
          "internalType": "string",
          "name": "title",
          "type": "string"
        },
        {
          "internalType": "uint16",
          "name": "issuerId",
          "type": "uint16"
        },
        {
          "internalType": "uint256",
          "name": "createdAt",
          "type": "uint256"
        }
      ],
      "stateMutability": "view",
      "type": "function"
    },
    {
      "inputs": [
        {
          "internalType": "address",
          "name": "from",
          "type": "address"
        },
        {
          "internalType": "address",
          "name": "to",
          "type": "address"
        },
        {
          "internalType": "uint256",
          "name": "tokenId",
          "type": "uint256"
        }
      ],
      "name": "safeTransferFrom",
      "outputs": [],
      "stateMutability": "nonpayable",
      "type": "function"
    },
    {
      "inputs": [
        {
          "internalType": "address",
          "name": "from",
          "type": "address"
        },
        {
          "internalType": "address",
          "name": "to",
          "type": "address"
        },
        {
          "internalType": "uint256",
          "name": "tokenId",
          "type": "uint256"
        },
        {
          "internalType": "bytes",
          "name": "data",
          "type": "bytes"
        }
      ],
      "name": "safeTransferFrom",
      "outputs": [],
      "stateMutability": "nonpayable",
      "type": "function"
    },
    {
      "inputs": [
        {
          "internalType": "address",
          "name": "operator",
          "type": "address"
        },
        {
          "internalType": "bool",
          "name": "approved",
          "type": "bool"
        }
      ],
      "name": "setApprovalForAll",
      "outputs": [],
      "stateMutability": "nonpayable",
      "type": "function"
    },
    {
      "inputs": [],
      "name": "signer",
      "outputs": [
        {
          "internalType": "address",
          "name": "",
          "type": "address"
        }
      ],
      "stateMutability": "view",
      "type": "function"
    },
    {
      "inputs": [
        {
          "internalType": "bytes4",
          "name": "interfaceId",
          "type": "bytes4"
        }
      ],
      "name": "supportsInterface",
      "outputs": [
        {
          "internalType": "bool",
          "name": "",
          "type": "bool"
        }
      ],
      "stateMutability": "view",
      "type": "function"
    },
    {
      "inputs": [],
      "name": "symbol",
      "outputs": [
        {
          "internalType": "string",
          "name": "",
          "type": "string"
        }
      ],
      "stateMutability": "view",
      "type": "function"
    },
    {
      "inputs": [
        {
          "internalType": "uint256",
          "name": "index",
          "type": "uint256"
        }
      ],
      "name": "tokenByIndex",
      "outputs": [
        {
          "internalType": "uint256",
          "name": "",
          "type": "uint256"
        }
      ],
      "stateMutability": "view",
      "type": "function"
    },
    {
      "inputs": [
        {
          "internalType": "address",
          "name": "owner",
          "type": "address"
        },
        {
          "internalType": "uint256",
          "name": "index",
          "type": "uint256"
        }
      ],
      "name": "tokenOfOwnerByIndex",
      "outputs": [
        {
          "internalType": "uint256",
          "name": "",
          "type": "uint256"
        }
      ],
      "stateMutability": "view",
      "type": "function"
    },
    {
      "inputs": [
        {
          "internalType": "uint256",
          "name": "tokenId",
          "type": "uint256"
        }
      ],
      "name": "tokenURI",
      "outputs": [
        {
          "internalType": "string",
          "name": "",
          "type": "string"
        }
      ],
      "stateMutability": "view",
      "type": "function"
    },
    {
      "inputs": [],
      "name": "totalSupply",
      "outputs": [
        {
          "internalType": "uint256",
          "name": "",
          "type": "uint256"
        }
      ],
      "stateMutability": "view",
      "type": "function"
    },
    {
      "inputs": [
        {
          "internalType": "address",
          "name": "from",
          "type": "address"
        },
        {
          "internalType": "address",
          "name": "to",
          "type": "address"
        },
        {
          "internalType": "uint256",
          "name": "tokenId",
          "type": "uint256"
        }
      ],
      "name": "transferFrom",
      "outputs": [],
      "stateMutability": "nonpayable",
      "type": "function"
    },
    {
      "inputs": [
        {
          "internalType": "address",
          "name": "newOwner",
          "type": "address"
        }
      ],
      "name": "transferOwnership",
      "outputs": [],
      "stateMutability": "nonpayable",
      "type": "function"
    },
    {
      "inputs": [
        {
          "internalType": "uint256",
          "name": "",
          "type": "uint256"
        }
      ],
      "name": "usedNonces",
      "outputs": [
        {
          "internalType": "bool",
          "name": "",
          "type": "bool"
        }
      ],
      "stateMutability": "view",
      "type": "function"
    }
  ],
  "bytecode": "0x60a06040523480156200001157600080fd5b5060405162005dca38038062005dca8339818101604052810190620000379190620003fd565b6040518060400160405280600c81526020017f52657761726420546f6b656e00000000000000000000000000000000000000008152506040518060400160405280600481526020017f54424150000000000000000000000000000000000000000000000000000000008152508160009081620000b49190620006ae565b508060019081620000c69190620006ae565b505050620000e9620000dd6200013760201b60201c565b6200013f60201b60201c565b8173ffffffffffffffffffffffffffffffffffffffff1660808173ffffffffffffffffffffffffffffffffffffffff168152505080600f90816200012e9190620006ae565b50505062000795565b600033905090565b6000600b60009054906101000a900473ffffffffffffffffffffffffffffffffffffffff16905081600b60006101000a81548173ffffffffffffffffffffffffffffffffffffffff021916908373ffffffffffffffffffffffffffffffffffffffff1602179055508173ffffffffffffffffffffffffffffffffffffffff168173ffffffffffffffffffffffffffffffffffffffff167f8be0079c531659141344cd1fd0a4f28419497f9722a3daafe3b4186f6b6457e060405160405180910390a35050565b6000604051905090565b600080fd5b600080fd5b600073ffffffffffffffffffffffffffffffffffffffff82169050919050565b6000620002468262000219565b9050919050565b620002588162000239565b81146200026457600080fd5b50565b60008151905062000278816200024d565b92915050565b600080fd5b600080fd5b6000601f19601f8301169050919050565b7f4e487b7100000000000000000000000000000000000000000000000000000000600052604160045260246000fd5b620002d38262000288565b810181811067ffffffffffffffff82111715620002f557620002f462000299565b5b80604052505050565b60006200030a62000205565b9050620003188282620002c8565b919050565b600067ffffffffffffffff8211156200033b576200033a62000299565b5b620003468262000288565b9050602081019050919050565b60005b838110156200037357808201518184015260208101905062000356565b60008484015250505050565b60006200039662000390846200031d565b620002fe565b905082815260208101848484011115620003b557620003b462000283565b5b620003c284828562000353565b509392505050565b600082601f830112620003e257620003e16200027e565b5b8151620003f48482602086016200037f565b91505092915050565b600080604083850312156200041757620004166200020f565b5b6000620004278582860162000267565b925050602083015167ffffffffffffffff8111156200044b576200044a62000214565b5b6200045985828601620003ca565b9150509250929050565b600081519050919050565b7f4e487b7100000000000000000000000000000000000000000000000000000000600052602260045260246000fd5b60006002820490506001821680620004b657607f821691505b602082108103620004cc57620004cb6200046e565b5b50919050565b60008190508160005260206000209050919050565b60006020601f8301049050919050565b600082821b905092915050565b600060088302620005367fffffffffffffffffffffffffffffffffffffffffffffffffffffffffffffffff82620004f7565b620005428683620004f7565b95508019841693508086168417925050509392505050565b6000819050919050565b6000819050919050565b60006200058f6200058962000583846200055a565b62000564565b6200055a565b9050919050565b6000819050919050565b620005ab836200056e565b620005c3620005ba8262000596565b84845462000504565b825550505050565b600090565b620005da620005cb565b620005e7818484620005a0565b505050565b5b818110156200060f5762000603600082620005d0565b600181019050620005ed565b5050565b601f8211156200065e576200062881620004d2565b6200063384620004e7565b8101602085101562000643578190505b6200065b6200065285620004e7565b830182620005ec565b50505b505050565b600082821c905092915050565b6000620006836000198460080262000663565b1980831691505092915050565b60006200069e838362000670565b9150826002028217905092915050565b620006b98262000463565b67ffffffffffffffff811115620006d557620006d462000299565b5b620006e182546200049d565b620006ee82828562000613565b600060209050601f83116001811462000726576000841562000711578287015190505b6200071d858262000690565b8655506200078d565b601f1984166200073686620004d2565b60005b82811015620007605784890151825560018201915060208501945060208101905062000739565b868310156200078057848901516200077c601f89168262000670565b8355505b6001600288020188555050505b505050505050565b608051615612620007b860003960008181610911015261122a01526156126000f3fe608060405234801561001057600080fd5b50600436106101a95760003560e01c80636717e41c116100f9578063b88d4fde11610097578063e6330baa11610071578063e6330baa146104f8578063e985e9c514610514578063f2fde38b14610544578063f301af4214610560576101a9565b8063b88d4fde1461048e578063c87b56dd146104aa578063d547cfb7146104da576101a9565b80637c34a67c116100d35780637c34a67c1461041a5780638da5cb5b1461043657806395d89b4114610454578063a22cb46514610472576101a9565b80636717e41c146103b057806370a08231146103e0578063715018a614610410576101a9565b8063238ac93311610166578063402244d111610140578063402244d11461030157806342842e0e146103345780634f6ccce7146103505780636352211e14610380576101a9565b8063238ac9331461029757806323b872dd146102b55780632f745c59146102d1576101a9565b806301ffc9a7146101ae57806306fdde03146101de578063078b0fb7146101fc578063081812fc1461022d578063095ea7b31461025d57806318160ddd14610279575b600080fd5b6101c860048036038101906101c39190613576565b610592565b6040516101d591906135be565b60405180910390f35b6101e66105a4565b6040516101f39190613669565b60405180910390f35b610216600480360381019061021191906136e9565b610636565b604051610224929190613971565b60405180910390f35b610247600480360381019061024291906139d4565b6107a5565b6040516102549190613a10565b60405180910390f35b61027760048036038101906102729190613a2b565b6107eb565b005b610281610902565b60405161028e9190613a7a565b60405180910390f35b61029f61090f565b6040516102ac9190613a10565b60405180910390f35b6102cf60048036038101906102ca9190613a95565b610933565b005b6102eb60048036038101906102e69190613a2b565b610993565b6040516102f89190613a7a565b60405180910390f35b61031b600480360381019061031691906139d4565b610a38565b60405161032b9493929190613af7565b60405180910390f35b61034e60048036038101906103499190613a95565b610b35565b005b61036a600480360381019061036591906139d4565b610b55565b6040516103779190613a7a565b60405180910390f35b61039a600480360381019061039591906139d4565b610bc6565b6040516103a79190613a10565b60405180910390f35b6103ca60048036038101906103c591906139d4565b610c4c565b6040516103d791906135be565b60405180910390f35b6103fa60048036038101906103f591906136e9565b610c6c565b6040516104079190613a7a565b60405180910390f35b610418610d23565b005b610434600480360381019061042f9190613bdb565b610d66565b005b61043e610e60565b60405161044b9190613a10565b60405180910390f35b61045c610e8a565b6040516104699190613669565b60405180910390f35b61048c60048036038101906104879190613cae565b610f1c565b005b6104a860048036038101906104a39190613e1e565b610f32565b005b6104c460048036038101906104bf91906139d4565b610f94565b6040516104d19190613669565b60405180910390f35b6104e2610fee565b6040516104ef9190613669565b60405180910390f35b610512600480360381019061050d9190613ef7565b61107c565b005b61052e60048036038101906105299190613fd3565b611320565b60405161053b91906135be565b60405180910390f35b61055e600480360381019061055991906136e9565b6113b4565b005b61057a600480360381019061057591906139d4565b611437565b60405161058993929190614013565b60405180910390f35b600061059d826114f7565b9050919050565b6060600080546105b390614080565b80601f01602080910402602001604051908101604052809291908181526020018280546105df90614080565b801561062c5780601f106106015761010080835404028352916020019161062c565b820191906000526020600020905b81548152906001019060200180831161060f57829003601f168201915b5050505050905090565b606080600061064484610c6c565b905060008167ffffffffffffffff81111561066257610661613cf3565b5b6040519080825280602002602001820160405280156106905781602001602082028036833780820191505090505b50905060008267ffffffffffffffff8111156106af576106ae613cf3565b5b6040519080825280602002602001820160405280156106e857816020015b6106d56134de565b8152602001906001900390816106cd5790505b50905060005b838110156107965760006107028883610993565b905060008060008061071385610a38565b935093509350935060405180608001604052808581526020018461ffff16815260200183815260200182815250878781518110610753576107526140b1565b5b602002602001018190525084888781518110610772576107716140b1565b5b6020026020010181815250505050505050808061078e9061410f565b9150506106ee565b50818194509450505050915091565b60006107b082611558565b6004600083815260200190815260200160002060009054906101000a900473ffffffffffffffffffffffffffffffffffffffff169050919050565b60006107f682610bc6565b90508073ffffffffffffffffffffffffffffffffffffffff168373ffffffffffffffffffffffffffffffffffffffff1603610866576040517f08c379a000000000000000000000000000000000000000000000000000000000815260040161085d906141c9565b60405180910390fd5b8073ffffffffffffffffffffffffffffffffffffffff166108856115a3565b73ffffffffffffffffffffffffffffffffffffffff1614806108b457506108b3816108ae6115a3565b611320565b5b6108f3576040517f08c379a00000000000000000000000000000000000000000000000000000000081526004016108ea9061425b565b60405180910390fd5b6108fd83836115ab565b505050565b6000600880549050905090565b7f000000000000000000000000000000000000000000000000000000000000000081565b61094461093e6115a3565b82611664565b610983576040517f08c379a000000000000000000000000000000000000000000000000000000000815260040161097a906142ed565b60405180910390fd5b61098e8383836116f9565b505050565b600061099e83610c6c565b82106109df576040517f08c379a00000000000000000000000000000000000000000000000000000000081526004016109d69061437f565b60405180910390fd5b600660008473ffffffffffffffffffffffffffffffffffffffff1673ffffffffffffffffffffffffffffffffffffffff168152602001908152602001600020600083815260200190815260200160002054905092915050565b60606000806060600c6000868152602001908152602001600020600001600c600087815260200190815260200160002060010160009054906101000a900461ffff16600c600088815260200190815260200160002060020154610a9a88610f94565b838054610aa690614080565b80601f0160208091040260200160405190810160405280929190818152602001828054610ad290614080565b8015610b1f5780601f10610af457610100808354040283529160200191610b1f565b820191906000526020600020905b815481529060010190602001808311610b0257829003601f168201915b5050505050935093509350935093509193509193565b610b5083838360405180602001604052806000815250610f32565b505050565b6000610b5f610902565b8210610ba0576040517f08c379a0000000000000000000000000000000000000000000000000000000008152600401610b9790614411565b60405180910390fd5b60088281548110610bb457610bb36140b1565b5b90600052602060002001549050919050565b600080610bd2836119f2565b9050600073ffffffffffffffffffffffffffffffffffffffff168173ffffffffffffffffffffffffffffffffffffffff1603610c43576040517f08c379a0000000000000000000000000000000000000000000000000000000008152600401610c3a9061447d565b60405180910390fd5b80915050919050565b600d6020528060005260406000206000915054906101000a900460ff1681565b60008073ffffffffffffffffffffffffffffffffffffffff168273ffffffffffffffffffffffffffffffffffffffff1603610cdc576040517f08c379a0000000000000000000000000000000000000000000000000000000008152600401610cd39061450f565b60405180910390fd5b600360008373ffffffffffffffffffffffffffffffffffffffff1673ffffffffffffffffffffffffffffffffffffffff168152602001908152602001600020549050919050565b610d2b611a2f565b6040517f08c379a0000000000000000000000000000000000000000000000000000000008152600401610d5d9061457b565b60405180910390fd5b610d6e611a2f565b84848080601f016020809104026020016040519081016040528093929190818152602001838380828437600081840152601f19601f820116905080830192505050505050506000610dbe82611aad565b9050610100811115610e05576040517f08c379a0000000000000000000000000000000000000000000000000000000008152600401610dfc906145e7565b60405180910390fd5b60008111610e48576040517f08c379a0000000000000000000000000000000000000000000000000000000008152600401610e3f90614653565b60405180910390fd5b610e56888888888888611d66565b5050505050505050565b6000600b60009054906101000a900473ffffffffffffffffffffffffffffffffffffffff16905090565b606060018054610e9990614080565b80601f0160208091040260200160405190810160405280929190818152602001828054610ec590614080565b8015610f125780601f10610ee757610100808354040283529160200191610f12565b820191906000526020600020905b815481529060010190602001808311610ef557829003601f168201915b5050505050905090565b610f2e610f276115a3565b8383611ef6565b5050565b610f43610f3d6115a3565b83611664565b610f82576040517f08c379a0000000000000000000000000000000000000000000000000000000008152600401610f79906142ed565b60405180910390fd5b610f8e84848484612062565b50505050565b6060610f9f826120be565b610fde576040517f08c379a0000000000000000000000000000000000000000000000000000000008152600401610fd5906146e5565b60405180910390fd5b610fe7826120ff565b9050919050565b600f8054610ffb90614080565b80601f016020809104026020016040519081016040528092919081815260200182805461102790614080565b80156110745780601f1061104957610100808354040283529160200191611074565b820191906000526020600020905b81548152906001019060200180831161105757829003601f168201915b505050505081565b87878080601f016020809104026020016040519081016040528093929190818152602001838380828437600081840152601f19601f8201169050808301925050505050505060006110cc82611aad565b9050610100811115611113576040517f08c379a000000000000000000000000000000000000000000000000000000000815260040161110a906145e7565b60405180910390fd5b60008111611156576040517f08c379a000000000000000000000000000000000000000000000000000000000815260040161114d90614653565b60405180910390fd5b86600d600082815260200190815260200160002060009054906101000a900460ff16156111b8576040517f08c379a00000000000000000000000000000000000000000000000000000000081526004016111af90614751565b60405180910390fd5b6001600d600083815260200190815260200160002060006101000a81548160ff02191690831515021790555060008b8b8b8b8b8b306040516020016112039796959493929190614840565b604051602081830303815290604052805190602001209050600061122682612211565b90507f000000000000000000000000000000000000000000000000000000000000000073ffffffffffffffffffffffffffffffffffffffff166112ad8289898080601f016020809104026020016040519081016040528093929190818152602001838380828437600081840152601f19601f82011690508083019250505050505050612247565b73ffffffffffffffffffffffffffffffffffffffff1614611303576040517f08c379a00000000000000000000000000000000000000000000000000000000081526004016112fa9061490d565b60405180910390fd5b611311338e8e8e8d8d611d66565b50505050505050505050505050565b6000600560008473ffffffffffffffffffffffffffffffffffffffff1673ffffffffffffffffffffffffffffffffffffffff16815260200190815260200160002060008373ffffffffffffffffffffffffffffffffffffffff1673ffffffffffffffffffffffffffffffffffffffff16815260200190815260200160002060009054906101000a900460ff16905092915050565b6113bc611a2f565b600073ffffffffffffffffffffffffffffffffffffffff168173ffffffffffffffffffffffffffffffffffffffff160361142b576040517f08c379a00000000000000000000000000000000000000000000000000000000081526004016114229061499f565b60405180910390fd5b6114348161226e565b50565b600c60205280600052604060002060009150905080600001805461145a90614080565b80601f016020809104026020016040519081016040528092919081815260200182805461148690614080565b80156114d35780601f106114a8576101008083540402835291602001916114d3565b820191906000526020600020905b8154815290600101906020018083116114b657829003601f168201915b5050505050908060010160009054906101000a900461ffff16908060020154905083565b6000634906490660e01b7bffffffffffffffffffffffffffffffffffffffffffffffffffffffff1916827bffffffffffffffffffffffffffffffffffffffffffffffffffffffff19161480611551575061155082612334565b5b9050919050565b611561816120be565b6115a0576040517f08c379a00000000000000000000000000000000000000000000000000000000081526004016115979061447d565b60405180910390fd5b50565b600033905090565b816004600083815260200190815260200160002060006101000a81548173ffffffffffffffffffffffffffffffffffffffff021916908373ffffffffffffffffffffffffffffffffffffffff160217905550808273ffffffffffffffffffffffffffffffffffffffff1661161e83610bc6565b73ffffffffffffffffffffffffffffffffffffffff167f8c5be1e5ebec7d5bd14f71427d1e84f3dd0314c0f7b2291e5b200ac8c7c3b92560405160405180910390a45050565b60008061167083610bc6565b90508073ffffffffffffffffffffffffffffffffffffffff168473ffffffffffffffffffffffffffffffffffffffff1614806116b257506116b18185611320565b5b806116f057508373ffffffffffffffffffffffffffffffffffffffff166116d8846107a5565b73ffffffffffffffffffffffffffffffffffffffff16145b91505092915050565b8273ffffffffffffffffffffffffffffffffffffffff1661171982610bc6565b73ffffffffffffffffffffffffffffffffffffffff161461176f576040517f08c379a000000000000000000000000000000000000000000000000000000000815260040161176690614a31565b60405180910390fd5b600073ffffffffffffffffffffffffffffffffffffffff168273ffffffffffffffffffffffffffffffffffffffff16036117de576040517f08c379a00000000000000000000000000000000000000000000000000000000081526004016117d590614ac3565b60405180910390fd5b6117eb83838360016123ae565b8273ffffffffffffffffffffffffffffffffffffffff1661180b82610bc6565b73ffffffffffffffffffffffffffffffffffffffff1614611861576040517f08c379a000000000000000000000000000000000000000000000000000000000815260040161185890614a31565b60405180910390fd5b6004600082815260200190815260200160002060006101000a81549073ffffffffffffffffffffffffffffffffffffffff02191690556001600360008573ffffffffffffffffffffffffffffffffffffffff1673ffffffffffffffffffffffffffffffffffffffff168152602001908152602001600020600082825403925050819055506001600360008473ffffffffffffffffffffffffffffffffffffffff1673ffffffffffffffffffffffffffffffffffffffff16815260200190815260200160002060008282540192505081905550816002600083815260200190815260200160002060006101000a81548173ffffffffffffffffffffffffffffffffffffffff021916908373ffffffffffffffffffffffffffffffffffffffff160217905550808273ffffffffffffffffffffffffffffffffffffffff168473ffffffffffffffffffffffffffffffffffffffff167fddf252ad1be2c89b69c2b068fc378daa952ba7f163c4a11628f55a4df523b3ef60405160405180910390a46119ed8383836001612466565b505050565b60006002600083815260200190815260200160002060009054906101000a900473ffffffffffffffffffffffffffffffffffffffff169050919050565b611a376115a3565b73ffffffffffffffffffffffffffffffffffffffff16611a55610e60565b73ffffffffffffffffffffffffffffffffffffffff1614611aab576040517f08c379a0000000000000000000000000000000000000000000000000000000008152600401611aa290614b2f565b60405180910390fd5b565b6000806000905060008390505b8051821015611d5f57600060f81b6007828481518110611add57611adc6140b1565b5b602001015160f81c60f81b7effffffffffffffffffffffffffffffffffffffffffffffffffffffffffffff1916901c7effffffffffffffffffffffffffffffffffffffffffffffffffffffffffffff191603611b4757600182611b409190614b4f565b9150611d4c565b600660f81b7effffffffffffffffffffffffffffffffffffffffffffffffffffffffffffff19166005828481518110611b8357611b826140b1565b5b602001015160f81c60f81b7effffffffffffffffffffffffffffffffffffffffffffffffffffffffffffff1916901c7effffffffffffffffffffffffffffffffffffffffffffffffffffffffffffff191603611bed57600282611be69190614b4f565b9150611d4b565b600e60f81b7effffffffffffffffffffffffffffffffffffffffffffffffffffffffffffff19166004828481518110611c2957611c286140b1565b5b602001015160f81c60f81b7effffffffffffffffffffffffffffffffffffffffffffffffffffffffffffff1916901c7effffffffffffffffffffffffffffffffffffffffffffffffffffffffffffff191603611c9357600382611c8c9190614b4f565b9150611d4a565b601e60f81b7effffffffffffffffffffffffffffffffffffffffffffffffffffffffffffff19166003828481518110611ccf57611cce6140b1565b5b602001015160f81c60f81b7effffffffffffffffffffffffffffffffffffffffffffffffffffffffffffff1916901c7effffffffffffffffffffffffffffffffffffffffffffffffffffffffffffff191603611d3957600482611d329190614b4f565b9150611d49565b600182611d469190614b4f565b91505b5b5b5b8280611d579061410f565b935050611aba565b5050919050565b60004290506000604051806060016040528088888080601f016020809104026020016040519081016040528093929190818152602001838380828437600081840152601f19601f8201169050808301925050505050505081526020018661ffff1681526020018381525090506000611dde600e61246c565b9050611dea600e61247a565b611df48982612490565b611e428186868080601f016020809104026020016040519081016040528093929190818152602001838380828437600081840152601f19601f820116905080830192505050505050506124ae565b81600c60008381526020019081526020016000206000820151816000019081611e6b9190614d2f565b5060208201518160010160006101000a81548161ffff021916908361ffff16021790555060408201518160020155905050808973ffffffffffffffffffffffffffffffffffffffff167fc71e86ec3f2203d2fc8628f5224fcaca0a1454ffb07f07f950b65b7e76d9c0fb84604051611ee39190614e51565b60405180910390a3505050505050505050565b8173ffffffffffffffffffffffffffffffffffffffff168373ffffffffffffffffffffffffffffffffffffffff1603611f64576040517f08c379a0000000000000000000000000000000000000000000000000000000008152600401611f5b90614ebf565b60405180910390fd5b80600560008573ffffffffffffffffffffffffffffffffffffffff1673ffffffffffffffffffffffffffffffffffffffff16815260200190815260200160002060008473ffffffffffffffffffffffffffffffffffffffff1673ffffffffffffffffffffffffffffffffffffffff16815260200190815260200160002060006101000a81548160ff0219169083151502179055508173ffffffffffffffffffffffffffffffffffffffff168373ffffffffffffffffffffffffffffffffffffffff167f17307eab39ab6107e8899845ad3d59bd9653f200f220920489ca2b5937696c318360405161205591906135be565b60405180910390a3505050565b61206d8484846116f9565b61207984848484612552565b6120b8576040517f08c379a00000000000000000000000000000000000000000000000000000000081526004016120af90614f51565b60405180910390fd5b50505050565b60008073ffffffffffffffffffffffffffffffffffffffff166120e0836119f2565b73ffffffffffffffffffffffffffffffffffffffff1614159050919050565b606061210a82611558565b6000600a6000848152602001908152602001600020805461212a90614080565b80601f016020809104026020016040519081016040528092919081815260200182805461215690614080565b80156121a35780601f10612178576101008083540402835291602001916121a3565b820191906000526020600020905b81548152906001019060200180831161218657829003601f168201915b5050505050905060006121b46126d9565b905060008151036121c957819250505061220c565b6000825111156121fe5780826040516020016121e6929190614fa2565b6040516020818303038152906040529250505061220c565b6122078461276b565b925050505b919050565b60007f19457468657265756d205369676e6564204d6573736167653a0a33320000000060005281601c52603c6000209050919050565b600080600061225685856127d3565b9150915061226381612824565b819250505092915050565b6000600b60009054906101000a900473ffffffffffffffffffffffffffffffffffffffff16905081600b60006101000a81548173ffffffffffffffffffffffffffffffffffffffff021916908373ffffffffffffffffffffffffffffffffffffffff1602179055508173ffffffffffffffffffffffffffffffffffffffff168173ffffffffffffffffffffffffffffffffffffffff167f8be0079c531659141344cd1fd0a4f28419497f9722a3daafe3b4186f6b6457e060405160405180910390a35050565b60007f780e9d63000000000000000000000000000000000000000000000000000000007bffffffffffffffffffffffffffffffffffffffffffffffffffffffff1916827bffffffffffffffffffffffffffffffffffffffffffffffffffffffff191614806123a757506123a68261298a565b5b9050919050565b600073ffffffffffffffffffffffffffffffffffffffff168473ffffffffffffffffffffffffffffffffffffffff1614806124155750600073ffffffffffffffffffffffffffffffffffffffff168373ffffffffffffffffffffffffffffffffffffffff16145b612454576040517f08c379a000000000000000000000000000000000000000000000000000000000815260040161244b90615038565b60405180910390fd5b61246084848484612a6c565b50505050565b50505050565b600081600001549050919050565b6001816000016000828254019250508190555050565b6124aa828260405180602001604052806000815250612bca565b5050565b6124b7826120be565b6124f6576040517f08c379a00000000000000000000000000000000000000000000000000000000081526004016124ed906150ca565b60405180910390fd5b80600a600084815260200190815260200160002090816125169190614d2f565b507ff8e1a15aba9398e019f0b49df1a4fde98ee17ae345cb5f6b5e2c27f5033e8ce7826040516125469190613a7a565b60405180910390a15050565b60006125738473ffffffffffffffffffffffffffffffffffffffff16612c25565b156126cc578373ffffffffffffffffffffffffffffffffffffffff1663150b7a0261259c6115a3565b8786866040518563ffffffff1660e01b81526004016125be949392919061513f565b6020604051808303816000875af19250505080156125fa57506040513d601f19601f820116820180604052508101906125f791906151a0565b60015b61267c573d806000811461262a576040519150601f19603f3d011682016040523d82523d6000602084013e61262f565b606091505b506000815103612674576040517f08c379a000000000000000000000000000000000000000000000000000000000815260040161266b90614f51565b60405180910390fd5b805181602001fd5b63150b7a0260e01b7bffffffffffffffffffffffffffffffffffffffffffffffffffffffff1916817bffffffffffffffffffffffffffffffffffffffffffffffffffffffff1916149150506126d1565b600190505b949350505050565b6060600f80546126e890614080565b80601f016020809104026020016040519081016040528092919081815260200182805461271490614080565b80156127615780601f1061273657610100808354040283529160200191612761565b820191906000526020600020905b81548152906001019060200180831161274457829003601f168201915b5050505050905090565b606061277682611558565b60006127806126d9565b905060008151116127a057604051806020016040528060008152506127cb565b806127aa84612c48565b6040516020016127bb929190614fa2565b6040516020818303038152906040525b915050919050565b60008060418351036128145760008060006020860151925060408601519150606086015160001a905061280887828585612d16565b9450945050505061281d565b60006002915091505b9250929050565b60006004811115612838576128376151cd565b5b81600481111561284b5761284a6151cd565b5b03156129875760016004811115612865576128646151cd565b5b816004811115612878576128776151cd565b5b036128b8576040517f08c379a00000000000000000000000000000000000000000000000000000000081526004016128af90615248565b60405180910390fd5b600260048111156128cc576128cb6151cd565b5b8160048111156128df576128de6151cd565b5b0361291f576040517f08c379a0000000000000000000000000000000000000000000000000000000008152600401612916906152b4565b60405180910390fd5b60036004811115612933576129326151cd565b5b816004811115612946576129456151cd565b5b03612986576040517f08c379a000000000000000000000000000000000000000000000000000000000815260040161297d90615346565b60405180910390fd5b5b50565b60007f80ac58cd000000000000000000000000000000000000000000000000000000007bffffffffffffffffffffffffffffffffffffffffffffffffffffffff1916827bffffffffffffffffffffffffffffffffffffffffffffffffffffffff19161480612a5557507f5b5e139f000000000000000000000000000000000000000000000000000000007bffffffffffffffffffffffffffffffffffffffffffffffffffffffff1916827bffffffffffffffffffffffffffffffffffffffffffffffffffffffff1916145b80612a655750612a6482612df8565b5b9050919050565b612a7884848484612e62565b6001811115612abc576040517f08c379a0000000000000000000000000000000000000000000000000000000008152600401612ab3906153d8565b60405180910390fd5b6000829050600073ffffffffffffffffffffffffffffffffffffffff168573ffffffffffffffffffffffffffffffffffffffff1603612b0357612afe81612e68565b612b42565b8373ffffffffffffffffffffffffffffffffffffffff168573ffffffffffffffffffffffffffffffffffffffff1614612b4157612b408582612eb1565b5b5b600073ffffffffffffffffffffffffffffffffffffffff168473ffffffffffffffffffffffffffffffffffffffff1603612b8457612b7f8161301e565b612bc3565b8473ffffffffffffffffffffffffffffffffffffffff168473ffffffffffffffffffffffffffffffffffffffff1614612bc257612bc184826130ef565b5b5b5050505050565b612bd4838361316e565b612be16000848484612552565b612c20576040517f08c379a0000000000000000000000000000000000000000000000000000000008152600401612c1790614f51565b60405180910390fd5b505050565b6000808273ffffffffffffffffffffffffffffffffffffffff163b119050919050565b606060006001612c578461338b565b01905060008167ffffffffffffffff811115612c7657612c75613cf3565b5b6040519080825280601f01601f191660200182016040528015612ca85781602001600182028036833780820191505090505b509050600082602001820190505b600115612d0b578080600190039150507f3031323334353637383961626364656600000000000000000000000000000000600a86061a8153600a8581612cff57612cfe6153f8565b5b04945060008503612cb6575b819350505050919050565b6000807f7fffffffffffffffffffffffffffffff5d576e7357a4501ddfe92f46681b20a08360001c1115612d51576000600391509150612def565b600060018787878760405160008152602001604052604051612d76949392919061545c565b6020604051602081039080840390855afa158015612d98573d6000803e3d6000fd5b505050602060405103519050600073ffffffffffffffffffffffffffffffffffffffff168173ffffffffffffffffffffffffffffffffffffffff1603612de657600060019250925050612def565b80600092509250505b94509492505050565b60007f01ffc9a7000000000000000000000000000000000000000000000000000000007bffffffffffffffffffffffffffffffffffffffffffffffffffffffff1916827bffffffffffffffffffffffffffffffffffffffffffffffffffffffff1916149050919050565b50505050565b6008805490506009600083815260200190815260200160002081905550600881908060018154018082558091505060019003906000526020600020016000909190919091505550565b60006001612ebe84610c6c565b612ec891906154a1565b9050600060076000848152602001908152602001600020549050818114612fad576000600660008673ffffffffffffffffffffffffffffffffffffffff1673ffffffffffffffffffffffffffffffffffffffff168152602001908152602001600020600084815260200190815260200160002054905080600660008773ffffffffffffffffffffffffffffffffffffffff1673ffffffffffffffffffffffffffffffffffffffff168152602001908152602001600020600084815260200190815260200160002081905550816007600083815260200190815260200160002081905550505b6007600084815260200190815260200160002060009055600660008573ffffffffffffffffffffffffffffffffffffffff1673ffffffffffffffffffffffffffffffffffffffff16815260200190815260200160002060008381526020019081526020016000206000905550505050565b6000600160088054905061303291906154a1565b9050600060096000848152602001908152602001600020549050600060088381548110613062576130616140b1565b5b906000526020600020015490508060088381548110613084576130836140b1565b5b9060005260206000200181905550816009600083815260200190815260200160002081905550600960008581526020019081526020016000206000905560088054806130d3576130d26154d5565b5b6001900381819060005260206000200160009055905550505050565b60006130fa83610c6c565b905081600660008573ffffffffffffffffffffffffffffffffffffffff1673ffffffffffffffffffffffffffffffffffffffff168152602001908152602001600020600083815260200190815260200160002081905550806007600084815260200190815260200160002081905550505050565b600073ffffffffffffffffffffffffffffffffffffffff168273ffffffffffffffffffffffffffffffffffffffff16036131dd576040517f08c379a00000000000000000000000000000000000000000000000000000000081526004016131d490615550565b60405180910390fd5b6131e6816120be565b15613226576040517f08c379a000000000000000000000000000000000000000000000000000000000815260040161321d906155bc565b60405180910390fd5b6132346000838360016123ae565b61323d816120be565b1561327d576040517f08c379a0000000000000000000000000000000000000000000000000000000008152600401613274906155bc565b60405180910390fd5b6001600360008473ffffffffffffffffffffffffffffffffffffffff1673ffffffffffffffffffffffffffffffffffffffff16815260200190815260200160002060008282540192505081905550816002600083815260200190815260200160002060006101000a81548173ffffffffffffffffffffffffffffffffffffffff021916908373ffffffffffffffffffffffffffffffffffffffff160217905550808273ffffffffffffffffffffffffffffffffffffffff16600073ffffffffffffffffffffffffffffffffffffffff167fddf252ad1be2c89b69c2b068fc378daa952ba7f163c4a11628f55a4df523b3ef60405160405180910390a4613387600083836001612466565b5050565b600080600090507a184f03e93ff9f4daa797ed6e38ed64bf6a1f01000000000000000083106133e9577a184f03e93ff9f4daa797ed6e38ed64bf6a1f01000000000000000083816133df576133de6153f8565b5b0492506040810190505b6d04ee2d6d415b85acef81000000008310613426576d04ee2d6d415b85acef8100000000838161341c5761341b6153f8565b5b0492506020810190505b662386f26fc10000831061345557662386f26fc10000838161344b5761344a6153f8565b5b0492506010810190505b6305f5e100831061347e576305f5e1008381613474576134736153f8565b5b0492506008810190505b61271083106134a3576127108381613499576134986153f8565b5b0492506004810190505b606483106134c657606483816134bc576134bb6153f8565b5b0492506002810190505b600a83106134d5576001810190505b80915050919050565b604051806080016040528060608152602001600061ffff16815260200160008152602001606081525090565b6000604051905090565b600080fd5b600080fd5b60007fffffffff0000000000000000000000000000000000000000000000000000000082169050919050565b6135538161351e565b811461355e57600080fd5b50565b6000813590506135708161354a565b92915050565b60006020828403121561358c5761358b613514565b5b600061359a84828501613561565b91505092915050565b60008115159050919050565b6135b8816135a3565b82525050565b60006020820190506135d360008301846135af565b92915050565b600081519050919050565b600082825260208201905092915050565b60005b838110156136135780820151818401526020810190506135f8565b60008484015250505050565b6000601f19601f8301169050919050565b600061363b826135d9565b61364581856135e4565b93506136558185602086016135f5565b61365e8161361f565b840191505092915050565b600060208201905081810360008301526136838184613630565b905092915050565b600073ffffffffffffffffffffffffffffffffffffffff82169050919050565b60006136b68261368b565b9050919050565b6136c6816136ab565b81146136d157600080fd5b50565b6000813590506136e3816136bd565b92915050565b6000602082840312156136ff576136fe613514565b5b600061370d848285016136d4565b91505092915050565b600081519050919050565b600082825260208201905092915050565b6000819050602082019050919050565b6000819050919050565b61375581613742565b82525050565b6000613767838361374c565b60208301905092915050565b6000602082019050919050565b600061378b82613716565b6137958185613721565b93506137a083613732565b8060005b838110156137d15781516137b8888261375b565b97506137c383613773565b9250506001810190506137a4565b5085935050505092915050565b600081519050919050565b600082825260208201905092915050565b6000819050602082019050919050565b600082825260208201905092915050565b6000613826826135d9565b613830818561380a565b93506138408185602086016135f5565b6138498161361f565b840191505092915050565b600061ffff82169050919050565b61386b81613854565b82525050565b6000608083016000830151848203600086015261388e828261381b565b91505060208301516138a36020860182613862565b5060408301516138b6604086018261374c565b50606083015184820360608601526138ce828261381b565b9150508091505092915050565b60006138e78383613871565b905092915050565b6000602082019050919050565b6000613907826137de565b61391181856137e9565b935083602082028501613923856137fa565b8060005b8581101561395f578484038952815161394085826138db565b945061394b836138ef565b925060208a01995050600181019050613927565b50829750879550505050505092915050565b6000604082019050818103600083015261398b8185613780565b9050818103602083015261399f81846138fc565b90509392505050565b6139b181613742565b81146139bc57600080fd5b50565b6000813590506139ce816139a8565b92915050565b6000602082840312156139ea576139e9613514565b5b60006139f8848285016139bf565b91505092915050565b613a0a816136ab565b82525050565b6000602082019050613a256000830184613a01565b92915050565b60008060408385031215613a4257613a41613514565b5b6000613a50858286016136d4565b9250506020613a61858286016139bf565b9150509250929050565b613a7481613742565b82525050565b6000602082019050613a8f6000830184613a6b565b92915050565b600080600060608486031215613aae57613aad613514565b5b6000613abc868287016136d4565b9350506020613acd868287016136d4565b9250506040613ade868287016139bf565b9150509250925092565b613af181613854565b82525050565b60006080820190508181036000830152613b118187613630565b9050613b206020830186613ae8565b613b2d6040830185613a6b565b8181036060830152613b3f8184613630565b905095945050505050565b600080fd5b600080fd5b600080fd5b60008083601f840112613b6f57613b6e613b4a565b5b8235905067ffffffffffffffff811115613b8c57613b8b613b4f565b5b602083019150836001820283011115613ba857613ba7613b54565b5b9250929050565b613bb881613854565b8114613bc357600080fd5b50565b600081359050613bd581613baf565b92915050565b60008060008060008060808789031215613bf857613bf7613514565b5b6000613c0689828a016136d4565b965050602087013567ffffffffffffffff811115613c2757613c26613519565b5b613c3389828a01613b59565b95509550506040613c4689828a01613bc6565b935050606087013567ffffffffffffffff811115613c6757613c66613519565b5b613c7389828a01613b59565b92509250509295509295509295565b613c8b816135a3565b8114613c9657600080fd5b50565b600081359050613ca881613c82565b92915050565b60008060408385031215613cc557613cc4613514565b5b6000613cd3858286016136d4565b9250506020613ce485828601613c99565b9150509250929050565b600080fd5b7f4e487b7100000000000000000000000000000000000000000000000000000000600052604160045260246000fd5b613d2b8261361f565b810181811067ffffffffffffffff82111715613d4a57613d49613cf3565b5b80604052505050565b6000613d5d61350a565b9050613d698282613d22565b919050565b600067ffffffffffffffff821115613d8957613d88613cf3565b5b613d928261361f565b9050602081019050919050565b82818337600083830152505050565b6000613dc1613dbc84613d6e565b613d53565b905082815260208101848484011115613ddd57613ddc613cee565b5b613de8848285613d9f565b509392505050565b600082601f830112613e0557613e04613b4a565b5b8135613e15848260208601613dae565b91505092915050565b60008060008060808587031215613e3857613e37613514565b5b6000613e46878288016136d4565b9450506020613e57878288016136d4565b9350506040613e68878288016139bf565b925050606085013567ffffffffffffffff811115613e8957613e88613519565b5b613e9587828801613df0565b91505092959194509250565b60008083601f840112613eb757613eb6613b4a565b5b8235905067ffffffffffffffff811115613ed457613ed3613b4f565b5b602083019150836001820283011115613ef057613eef613b54565b5b9250929050565b60008060008060008060008060a0898b031215613f1757613f16613514565b5b600089013567ffffffffffffffff811115613f3557613f34613519565b5b613f418b828c01613b59565b98509850506020613f548b828c01613bc6565b9650506040613f658b828c016139bf565b955050606089013567ffffffffffffffff811115613f8657613f85613519565b5b613f928b828c01613b59565b9450945050608089013567ffffffffffffffff811115613fb557613fb4613519565b5b613fc18b828c01613ea1565b92509250509295985092959890939650565b60008060408385031215613fea57613fe9613514565b5b6000613ff8858286016136d4565b9250506020614009858286016136d4565b9150509250929050565b6000606082019050818103600083015261402d8186613630565b905061403c6020830185613ae8565b6140496040830184613a6b565b949350505050565b7f4e487b7100000000000000000000000000000000000000000000000000000000600052602260045260246000fd5b6000600282049050600182168061409857607f821691505b6020821081036140ab576140aa614051565b5b50919050565b7f4e487b7100000000000000000000000000000000000000000000000000000000600052603260045260246000fd5b7f4e487b7100000000000000000000000000000000000000000000000000000000600052601160045260246000fd5b600061411a82613742565b91507fffffffffffffffffffffffffffffffffffffffffffffffffffffffffffffffff820361414c5761414b6140e0565b5b600182019050919050565b7f4552433732313a20617070726f76616c20746f2063757272656e74206f776e6560008201527f7200000000000000000000000000000000000000000000000000000000000000602082015250565b60006141b36021836135e4565b91506141be82614157565b604082019050919050565b600060208201905081810360008301526141e2816141a6565b9050919050565b7f4552433732313a20617070726f76652063616c6c6572206973206e6f7420746f60008201527f6b656e206f776e6572206f7220617070726f76656420666f7220616c6c000000602082015250565b6000614245603d836135e4565b9150614250826141e9565b604082019050919050565b6000602082019050818103600083015261427481614238565b9050919050565b7f4552433732313a2063616c6c6572206973206e6f7420746f6b656e206f776e6560008201527f72206f7220617070726f76656400000000000000000000000000000000000000602082015250565b60006142d7602d836135e4565b91506142e28261427b565b604082019050919050565b60006020820190508181036000830152614306816142ca565b9050919050565b7f455243373231456e756d657261626c653a206f776e657220696e646578206f7560008201527f74206f6620626f756e6473000000000000000000000000000000000000000000602082015250565b6000614369602b836135e4565b91506143748261430d565b604082019050919050565b600060208201905081810360008301526143988161435c565b9050919050565b7f455243373231456e756d657261626c653a20676c6f62616c20696e646578206f60008201527f7574206f6620626f756e64730000000000000000000000000000000000000000602082015250565b60006143fb602c836135e4565b91506144068261439f565b604082019050919050565b6000602082019050818103600083015261442a816143ee565b9050919050565b7f4552433732313a20696e76616c696420746f6b656e2049440000000000000000600082015250565b60006144676018836135e4565b915061447282614431565b602082019050919050565b600060208201905081810360008301526144968161445a565b9050919050565b7f4552433732313a2061646472657373207a65726f206973206e6f74206120766160008201527f6c6964206f776e65720000000000000000000000000000000000000000000000602082015250565b60006144f96029836135e4565b91506145048261449d565b604082019050919050565b60006020820190508181036000830152614528816144ec565b9050919050565b7f43616e27742072656e6f756e63654f776e657273686970206865726500000000600082015250565b6000614565601c836135e4565b91506145708261452f565b602082019050919050565b6000602082019050818103600083015261459481614558565b9050919050565b7f5469746c6520697320746f6f206c6f6e67000000000000000000000000000000600082015250565b60006145d16011836135e4565b91506145dc8261459b565b602082019050919050565b60006020820190508181036000830152614600816145c4565b9050919050565b7f5469746c652063616e6e6f7420626520626c616e6b0000000000000000000000600082015250565b600061463d6015836135e4565b915061464882614607565b602082019050919050565b6000602082019050818103600083015261466c81614630565b9050919050565b7f45524337323155524953746f726167653a2055524920717565727920666f722060008201527f6e6f6e6578697374656e7420746f6b656e000000000000000000000000000000602082015250565b60006146cf6031836135e4565b91506146da82614673565b604082019050919050565b600060208201905081810360008301526146fe816146c2565b9050919050565b7f5369676e617475726520616c7265616479207573656400000000000000000000600082015250565b600061473b6016836135e4565b915061474682614705565b602082019050919050565b6000602082019050818103600083015261476a8161472e565b9050919050565b600081905092915050565b60006147888385614771565b9350614795838584613d9f565b82840190509392505050565b60008160f01b9050919050565b60006147b9826147a1565b9050919050565b6147d16147cc82613854565b6147ae565b82525050565b6000819050919050565b6147f26147ed82613742565b6147d7565b82525050565b60008160601b9050919050565b6000614810826147f8565b9050919050565b600061482282614805565b9050919050565b61483a614835826136ab565b614817565b82525050565b600061484d82898b61477c565b915061485982886147c0565b60028201915061486982876147e1565b60208201915061487a82858761477c565b91506148868284614829565b60148201915081905098975050505050505050565b7f496e76616c6964206261636b656e64207369676e61747572652e204d696e742060008201527f6e6f7420616c6c6f7765642e0000000000000000000000000000000000000000602082015250565b60006148f7602c836135e4565b91506149028261489b565b604082019050919050565b60006020820190508181036000830152614926816148ea565b9050919050565b7f4f776e61626c653a206e6577206f776e657220697320746865207a65726f206160008201527f6464726573730000000000000000000000000000000000000000000000000000602082015250565b60006149896026836135e4565b91506149948261492d565b604082019050919050565b600060208201905081810360008301526149b88161497c565b9050919050565b7f4552433732313a207472616e736665722066726f6d20696e636f72726563742060008201527f6f776e6572000000000000000000000000000000000000000000000000000000602082015250565b6000614a1b6025836135e4565b9150614a26826149bf565b604082019050919050565b60006020820190508181036000830152614a4a81614a0e565b9050919050565b7f4552433732313a207472616e7366657220746f20746865207a65726f2061646460008201527f7265737300000000000000000000000000000000000000000000000000000000602082015250565b6000614aad6024836135e4565b9150614ab882614a51565b604082019050919050565b60006020820190508181036000830152614adc81614aa0565b9050919050565b7f4f776e61626c653a2063616c6c6572206973206e6f7420746865206f776e6572600082015250565b6000614b196020836135e4565b9150614b2482614ae3565b602082019050919050565b60006020820190508181036000830152614b4881614b0c565b9050919050565b6000614b5a82613742565b9150614b6583613742565b9250828201905080821115614b7d57614b7c6140e0565b5b92915050565b60008190508160005260206000209050919050565b60006020601f8301049050919050565b600082821b905092915050565b600060088302614be57fffffffffffffffffffffffffffffffffffffffffffffffffffffffffffffffff82614ba8565b614bef8683614ba8565b95508019841693508086168417925050509392505050565b6000819050919050565b6000614c2c614c27614c2284613742565b614c07565b613742565b9050919050565b6000819050919050565b614c4683614c11565b614c5a614c5282614c33565b848454614bb5565b825550505050565b600090565b614c6f614c62565b614c7a818484614c3d565b505050565b5b81811015614c9e57614c93600082614c67565b600181019050614c80565b5050565b601f821115614ce357614cb481614b83565b614cbd84614b98565b81016020851015614ccc578190505b614ce0614cd885614b98565b830182614c7f565b50505b505050565b600082821c905092915050565b6000614d0660001984600802614ce8565b1980831691505092915050565b6000614d1f8383614cf5565b9150826002028217905092915050565b614d38826135d9565b67ffffffffffffffff811115614d5157614d50613cf3565b5b614d5b8254614080565b614d66828285614ca2565b600060209050601f831160018114614d995760008415614d87578287015190505b614d918582614d13565b865550614df9565b601f198416614da786614b83565b60005b82811015614dcf57848901518255600182019150602085019450602081019050614daa565b86831015614dec5784890151614de8601f891682614cf5565b8355505b6001600288020188555050505b505050505050565b60006060830160008301518482036000860152614e1e828261381b565b9150506020830151614e336020860182613862565b506040830151614e46604086018261374c565b508091505092915050565b60006020820190508181036000830152614e6b8184614e01565b905092915050565b7f4552433732313a20617070726f766520746f2063616c6c657200000000000000600082015250565b6000614ea96019836135e4565b9150614eb482614e73565b602082019050919050565b60006020820190508181036000830152614ed881614e9c565b9050919050565b7f4552433732313a207472616e7366657220746f206e6f6e20455243373231526560008201527f63656976657220696d706c656d656e7465720000000000000000000000000000602082015250565b6000614f3b6032836135e4565b9150614f4682614edf565b604082019050919050565b60006020820190508181036000830152614f6a81614f2e565b9050919050565b6000614f7c826135d9565b614f868185614771565b9350614f968185602086016135f5565b80840191505092915050565b6000614fae8285614f71565b9150614fba8284614f71565b91508190509392505050565b7f546f6b656e206f776e657273686970206973206e6f6e207472616e736665727260008201527f61626c6500000000000000000000000000000000000000000000000000000000602082015250565b60006150226024836135e4565b915061502d82614fc6565b604082019050919050565b6000602082019050818103600083015261505181615015565b9050919050565b7f45524337323155524953746f726167653a2055524920736574206f66206e6f6e60008201527f6578697374656e7420746f6b656e000000000000000000000000000000000000602082015250565b60006150b4602e836135e4565b91506150bf82615058565b604082019050919050565b600060208201905081810360008301526150e3816150a7565b9050919050565b600081519050919050565b600082825260208201905092915050565b6000615111826150ea565b61511b81856150f5565b935061512b8185602086016135f5565b6151348161361f565b840191505092915050565b60006080820190506151546000830187613a01565b6151616020830186613a01565b61516e6040830185613a6b565b81810360608301526151808184615106565b905095945050505050565b60008151905061519a8161354a565b92915050565b6000602082840312156151b6576151b5613514565b5b60006151c48482850161518b565b91505092915050565b7f4e487b7100000000000000000000000000000000000000000000000000000000600052602160045260246000fd5b7f45434453413a20696e76616c6964207369676e61747572650000000000000000600082015250565b60006152326018836135e4565b915061523d826151fc565b602082019050919050565b6000602082019050818103600083015261526181615225565b9050919050565b7f45434453413a20696e76616c6964207369676e6174757265206c656e67746800600082015250565b600061529e601f836135e4565b91506152a982615268565b602082019050919050565b600060208201905081810360008301526152cd81615291565b9050919050565b7f45434453413a20696e76616c6964207369676e6174757265202773272076616c60008201527f7565000000000000000000000000000000000000000000000000000000000000602082015250565b60006153306022836135e4565b915061533b826152d4565b604082019050919050565b6000602082019050818103600083015261535f81615323565b9050919050565b7f455243373231456e756d657261626c653a20636f6e736563757469766520747260008201527f616e7366657273206e6f7420737570706f727465640000000000000000000000602082015250565b60006153c26035836135e4565b91506153cd82615366565b604082019050919050565b600060208201905081810360008301526153f1816153b5565b9050919050565b7f4e487b7100000000000000000000000000000000000000000000000000000000600052601260045260246000fd5b6000819050919050565b61543a81615427565b82525050565b600060ff82169050919050565b61545681615440565b82525050565b60006080820190506154716000830187615431565b61547e602083018661544d565b61548b6040830185615431565b6154986060830184615431565b95945050505050565b60006154ac82613742565b91506154b783613742565b92508282039050818111156154cf576154ce6140e0565b5b92915050565b7f4e487b7100000000000000000000000000000000000000000000000000000000600052603160045260246000fd5b7f4552433732313a206d696e7420746f20746865207a65726f2061646472657373600082015250565b600061553a6020836135e4565b915061554582615504565b602082019050919050565b600060208201905081810360008301526155698161552d565b9050919050565b7f4552433732313a20746f6b656e20616c7265616479206d696e74656400000000600082015250565b60006155a6601c836135e4565b91506155b182615570565b602082019050919050565b600060208201905081810360008301526155d581615599565b905091905056fea26469706673582212205dd6396ff6ddef5b065143a288c27899ec614a1b9fd6fbe811958a1919ac63c364736f6c63430008120033",
  "linkReferences": {},
  "deployedLinkReferences": {}
}